{
  "_format": "hh-sol-artifact-1",
  "contractName": "NFTCollectionManager",
  "sourceName": "contracts/NFTCollectionManager.sol",
  "abi": [
    {
      "inputs": [],
      "stateMutability": "nonpayable",
      "type": "constructor"
    },
    {
      "anonymous": false,
      "inputs": [
        {
          "indexed": false,
          "internalType": "address",
          "name": "_to",
          "type": "address"
        }
      ],
      "name": "AdminAdded",
      "type": "event"
    },
    {
      "anonymous": false,
      "inputs": [
        {
          "indexed": false,
          "internalType": "address",
          "name": "_to",
          "type": "address"
        }
      ],
      "name": "AdminRevoked",
      "type": "event"
    },
    {
      "anonymous": false,
      "inputs": [
        {
          "indexed": false,
          "internalType": "address",
          "name": "createdAt",
          "type": "address"
        },
        {
          "indexed": false,
          "internalType": "address",
          "name": "creator",
          "type": "address"
        }
      ],
      "name": "CollectionCreated",
      "type": "event"
    },
    {
      "anonymous": false,
      "inputs": [
        {
          "indexed": false,
          "internalType": "address",
          "name": "_to",
          "type": "address"
        }
      ],
      "name": "CreatorAdded",
      "type": "event"
    },
    {
      "anonymous": false,
      "inputs": [
        {
          "indexed": false,
          "internalType": "address",
          "name": "_to",
          "type": "address"
        }
      ],
      "name": "CreatorRevoked",
      "type": "event"
    },
    {
      "anonymous": false,
      "inputs": [
        {
          "indexed": true,
          "internalType": "address",
          "name": "previousOwner",
          "type": "address"
        },
        {
          "indexed": true,
          "internalType": "address",
          "name": "newOwner",
          "type": "address"
        }
      ],
      "name": "OwnershipTransferred",
      "type": "event"
    },
    {
      "anonymous": false,
      "inputs": [
        {
          "indexed": true,
          "internalType": "bytes32",
          "name": "role",
          "type": "bytes32"
        },
        {
          "indexed": true,
          "internalType": "bytes32",
          "name": "previousAdminRole",
          "type": "bytes32"
        },
        {
          "indexed": true,
          "internalType": "bytes32",
          "name": "newAdminRole",
          "type": "bytes32"
        }
      ],
      "name": "RoleAdminChanged",
      "type": "event"
    },
    {
      "anonymous": false,
      "inputs": [
        {
          "indexed": true,
          "internalType": "bytes32",
          "name": "role",
          "type": "bytes32"
        },
        {
          "indexed": true,
          "internalType": "address",
          "name": "account",
          "type": "address"
        },
        {
          "indexed": true,
          "internalType": "address",
          "name": "sender",
          "type": "address"
        }
      ],
      "name": "RoleGranted",
      "type": "event"
    },
    {
      "anonymous": false,
      "inputs": [
        {
          "indexed": true,
          "internalType": "bytes32",
          "name": "role",
          "type": "bytes32"
        },
        {
          "indexed": true,
          "internalType": "address",
          "name": "account",
          "type": "address"
        },
        {
          "indexed": true,
          "internalType": "address",
          "name": "sender",
          "type": "address"
        }
      ],
      "name": "RoleRevoked",
      "type": "event"
    },
    {
      "anonymous": false,
      "inputs": [
        {
          "indexed": false,
          "internalType": "uint256",
          "name": "amount",
          "type": "uint256"
        },
        {
          "indexed": false,
          "internalType": "address",
          "name": "to",
          "type": "address"
        }
      ],
      "name": "WithDraw",
      "type": "event"
    },
    {
      "stateMutability": "payable",
      "type": "fallback"
    },
    {
      "inputs": [],
      "name": "ADMIN_ROLE_LIMIT",
      "outputs": [
        {
          "internalType": "uint256",
          "name": "",
          "type": "uint256"
        }
      ],
      "stateMutability": "view",
      "type": "function"
    },
    {
      "inputs": [],
      "name": "CREATOR_ROLE_LIMIT",
      "outputs": [
        {
          "internalType": "uint256",
          "name": "",
          "type": "uint256"
        }
      ],
      "stateMutability": "view",
      "type": "function"
    },
    {
      "inputs": [],
      "name": "DEFAULT_ADMIN_ROLE",
      "outputs": [
        {
          "internalType": "bytes32",
          "name": "",
          "type": "bytes32"
        }
      ],
      "stateMutability": "view",
      "type": "function"
    },
    {
      "inputs": [
        {
          "internalType": "address",
          "name": "_to",
          "type": "address"
        }
      ],
      "name": "addAdmin",
      "outputs": [],
      "stateMutability": "nonpayable",
      "type": "function"
    },
    {
      "inputs": [
        {
          "internalType": "address",
          "name": "_to",
          "type": "address"
        }
      ],
      "name": "addCreator",
      "outputs": [],
      "stateMutability": "nonpayable",
      "type": "function"
    },
    {
      "inputs": [
        {
          "internalType": "string",
          "name": "tokenName",
          "type": "string"
        },
        {
          "internalType": "string",
          "name": "tokenSymbol",
          "type": "string"
        },
        {
          "internalType": "string",
          "name": "tokenBaseUri",
          "type": "string"
        },
        {
          "internalType": "uint256",
          "name": "tokenPrice",
          "type": "uint256"
        },
        {
          "internalType": "uint256",
          "name": "tokenCount",
          "type": "uint256"
        }
      ],
      "name": "createCollection",
      "outputs": [
        {
          "internalType": "address",
          "name": "",
          "type": "address"
        }
      ],
      "stateMutability": "nonpayable",
      "type": "function"
    },
    {
      "inputs": [],
      "name": "getAdminList",
      "outputs": [
        {
          "internalType": "address[]",
          "name": "",
          "type": "address[]"
        }
      ],
      "stateMutability": "view",
      "type": "function"
    },
    {
      "inputs": [],
      "name": "getAllCollectionAddressList",
      "outputs": [
        {
          "internalType": "address[]",
          "name": "",
          "type": "address[]"
        }
      ],
      "stateMutability": "view",
      "type": "function"
    },
    {
      "inputs": [],
      "name": "getAllDetailedCollectionList",
      "outputs": [
        {
          "components": [
            {
              "internalType": "address",
              "name": "addr",
              "type": "address"
            },
            {
              "internalType": "string",
              "name": "name",
              "type": "string"
            },
            {
              "internalType": "string",
              "name": "symbol",
              "type": "string"
            },
            {
              "internalType": "uint256",
              "name": "count",
              "type": "uint256"
            },
            {
              "internalType": "uint256",
              "name": "price",
              "type": "uint256"
            }
          ],
          "internalType": "struct NFTCollectionManager.CollectionInfo[]",
          "name": "",
          "type": "tuple[]"
        }
      ],
      "stateMutability": "view",
      "type": "function"
    },
    {
      "inputs": [
        {
          "internalType": "address",
          "name": "_to",
          "type": "address"
        }
      ],
      "name": "getAllTokensForUser",
      "outputs": [
        {
          "components": [
            {
              "internalType": "string",
              "name": "collectionName",
              "type": "string"
            },
            {
              "internalType": "string",
              "name": "collectionSymbol",
              "type": "string"
            },
            {
              "internalType": "string",
              "name": "uri",
              "type": "string"
            },
            {
              "internalType": "uint256",
              "name": "price",
              "type": "uint256"
            },
            {
              "internalType": "uint256[]",
              "name": "id",
              "type": "uint256[]"
            }
          ],
          "internalType": "struct INFTCollectionManagerRole.TokenListInfo[]",
          "name": "",
          "type": "tuple[]"
        }
      ],
      "stateMutability": "view",
      "type": "function"
    },
    {
      "inputs": [
        {
          "internalType": "string",
          "name": "tokenName",
          "type": "string"
        }
      ],
      "name": "getCollectionListByName",
      "outputs": [
        {
          "internalType": "address[]",
          "name": "",
          "type": "address[]"
        }
      ],
      "stateMutability": "view",
      "type": "function"
    },
    {
      "inputs": [
        {
          "internalType": "address",
          "name": "tokenOwner",
          "type": "address"
        }
      ],
      "name": "getCollectionListByOwner",
      "outputs": [
        {
          "internalType": "address[]",
          "name": "",
          "type": "address[]"
        }
      ],
      "stateMutability": "view",
      "type": "function"
    },
    {
      "inputs": [],
      "name": "getCreatorList",
      "outputs": [
        {
          "internalType": "address[]",
          "name": "",
          "type": "address[]"
        }
      ],
      "stateMutability": "view",
      "type": "function"
    },
    {
      "inputs": [
        {
          "internalType": "bytes32",
          "name": "role",
          "type": "bytes32"
        }
      ],
      "name": "getRoleAdmin",
      "outputs": [
        {
          "internalType": "bytes32",
          "name": "",
          "type": "bytes32"
        }
      ],
      "stateMutability": "view",
      "type": "function"
    },
    {
      "inputs": [
        {
          "internalType": "bytes32",
          "name": "role",
          "type": "bytes32"
        },
        {
          "internalType": "uint256",
          "name": "index",
          "type": "uint256"
        }
      ],
      "name": "getRoleMember",
      "outputs": [
        {
          "internalType": "address",
          "name": "",
          "type": "address"
        }
      ],
      "stateMutability": "view",
      "type": "function"
    },
    {
      "inputs": [
        {
          "internalType": "bytes32",
          "name": "role",
          "type": "bytes32"
        }
      ],
      "name": "getRoleMemberCount",
      "outputs": [
        {
          "internalType": "uint256",
          "name": "",
          "type": "uint256"
        }
      ],
      "stateMutability": "view",
      "type": "function"
    },
    {
      "inputs": [
        {
          "internalType": "bytes32",
          "name": "role",
          "type": "bytes32"
        },
        {
          "internalType": "address",
          "name": "account",
          "type": "address"
        }
      ],
      "name": "grantRole",
      "outputs": [],
      "stateMutability": "nonpayable",
      "type": "function"
    },
    {
      "inputs": [
        {
          "internalType": "address",
          "name": "_to",
          "type": "address"
        }
      ],
      "name": "hasAdminRole",
      "outputs": [
        {
          "internalType": "bool",
          "name": "",
          "type": "bool"
        }
      ],
      "stateMutability": "view",
      "type": "function"
    },
    {
      "inputs": [
        {
          "internalType": "address",
          "name": "_to",
          "type": "address"
        }
      ],
      "name": "hasCreatorRole",
      "outputs": [
        {
          "internalType": "bool",
          "name": "",
          "type": "bool"
        }
      ],
      "stateMutability": "view",
      "type": "function"
    },
    {
      "inputs": [
        {
          "internalType": "bytes32",
          "name": "role",
          "type": "bytes32"
        },
        {
          "internalType": "address",
          "name": "account",
          "type": "address"
        }
      ],
      "name": "hasRole",
      "outputs": [
        {
          "internalType": "bool",
          "name": "",
          "type": "bool"
        }
      ],
      "stateMutability": "view",
      "type": "function"
    },
    {
      "inputs": [
        {
          "internalType": "address",
          "name": "contractAddr",
          "type": "address"
        },
        {
          "internalType": "uint256",
          "name": "count",
          "type": "uint256"
        }
      ],
      "name": "mintNFTs",
      "outputs": [],
      "stateMutability": "payable",
      "type": "function"
    },
    {
      "inputs": [
        {
          "internalType": "address",
          "name": "",
          "type": "address"
        },
        {
          "internalType": "address",
          "name": "",
          "type": "address"
        },
        {
          "internalType": "uint256",
          "name": "",
          "type": "uint256"
        },
        {
          "internalType": "bytes",
          "name": "",
          "type": "bytes"
        }
      ],
      "name": "onERC721Received",
      "outputs": [
        {
          "internalType": "bytes4",
          "name": "",
          "type": "bytes4"
        }
      ],
      "stateMutability": "nonpayable",
      "type": "function"
    },
    {
      "inputs": [],
      "name": "owner",
      "outputs": [
        {
          "internalType": "address",
          "name": "",
          "type": "address"
        }
      ],
      "stateMutability": "view",
      "type": "function"
    },
    {
      "inputs": [],
      "name": "renounceOwnership",
      "outputs": [],
      "stateMutability": "nonpayable",
      "type": "function"
    },
    {
      "inputs": [
        {
          "internalType": "bytes32",
          "name": "role",
          "type": "bytes32"
        },
        {
          "internalType": "address",
          "name": "account",
          "type": "address"
        }
      ],
      "name": "renounceRole",
      "outputs": [],
      "stateMutability": "nonpayable",
      "type": "function"
    },
    {
      "inputs": [
        {
          "internalType": "address",
          "name": "_to",
          "type": "address"
        }
      ],
      "name": "revokeAdmin",
      "outputs": [],
      "stateMutability": "nonpayable",
      "type": "function"
    },
    {
      "inputs": [
        {
          "internalType": "address",
          "name": "_to",
          "type": "address"
        }
      ],
      "name": "revokeCreator",
      "outputs": [],
      "stateMutability": "nonpayable",
      "type": "function"
    },
    {
      "inputs": [
        {
          "internalType": "bytes32",
          "name": "role",
          "type": "bytes32"
        },
        {
          "internalType": "address",
          "name": "account",
          "type": "address"
        }
      ],
      "name": "revokeRole",
      "outputs": [],
      "stateMutability": "nonpayable",
      "type": "function"
    },
    {
      "inputs": [
        {
          "internalType": "bytes4",
          "name": "interfaceId",
          "type": "bytes4"
        }
      ],
      "name": "supportsInterface",
      "outputs": [
        {
          "internalType": "bool",
          "name": "",
          "type": "bool"
        }
      ],
      "stateMutability": "view",
      "type": "function"
    },
    {
      "inputs": [
        {
          "internalType": "address",
          "name": "newOwner",
          "type": "address"
        }
      ],
      "name": "transferOwnership",
      "outputs": [],
      "stateMutability": "nonpayable",
      "type": "function"
    },
    {
      "inputs": [],
      "name": "withdraw",
      "outputs": [],
      "stateMutability": "payable",
      "type": "function"
    },
    {
      "stateMutability": "payable",
      "type": "receive"
    }
  ],
  "bytecode": "0x608060405260646008556103e86009553480156200001c57600080fd5b5062000028336200003d565b6001600355620000376200008f565b62000699565b600280546001600160a01b038381166001600160a01b0319831681179093556040519116919082907f8be0079c531659141344cd1fd0a4f28419497f9722a3daafe3b4186f6b6457e090600090a35050565b620000ae6000620000a86002546001600160a01b031690565b62000133565b7fa49807205ce4d355092ef5a8a18f56e8913cf4a201fbe287825b095693c21775600b557f9f2df0fed2c77648de5860a4cc508cd0818c85b8b8a1ab4ceeef8d981c8956a6600a8190556200011690620001106002546001600160a01b031690565b62000143565b600b546200013190620001106002546001600160a01b031690565b565b6200013f828262000172565b5050565b600082815260208190526040902060010154620001618133620001b0565b6200016d838362000172565b505050565b6200018982826200025460201b62001aba1760201c565b60008281526001602090815260409091206200016d91839062001b42620002f4821b17901c565b6000828152602081815260408083206001600160a01b038516845290915290205460ff166200013f57620001fa816001600160a01b031660146200031460201b62001b591760201c565b6200021083602062001b5962000314821b17811c565b604051602001620002239291906200051f565b60408051601f198184030181529082905262461bcd60e51b82526200024b9160040162000598565b60405180910390fd5b6000828152602081815260408083206001600160a01b038516845290915290205460ff166200013f576000828152602081815260408083206001600160a01b03851684529091529020805460ff19166001179055620002b03390565b6001600160a01b0316816001600160a01b0316837f2f8788117e7eff1d82e926ec794901d17c78024a50270940304540a733656f0d60405160405180910390a45050565b60006200030b836001600160a01b038416620004cd565b90505b92915050565b6060600062000325836002620005e8565b62000332906002620005cd565b6001600160401b038111156200034c576200034c62000683565b6040519080825280601f01601f19166020018201604052801562000377576020820181803683370190505b509050600360fc1b816000815181106200039557620003956200066d565b60200101906001600160f81b031916908160001a905350600f60fb1b81600181518110620003c757620003c76200066d565b60200101906001600160f81b031916908160001a9053506000620003ed846002620005e8565b620003fa906001620005cd565b90505b60018111156200047c576f181899199a1a9b1b9c1cb0b131b232b360811b85600f16601081106200043257620004326200066d565b1a60f81b8282815181106200044b576200044b6200066d565b60200101906001600160f81b031916908160001a90535060049490941c9362000474816200063d565b9050620003fd565b5083156200030b5760405162461bcd60e51b815260206004820181905260248201527f537472696e67733a20686578206c656e67746820696e73756666696369656e7460448201526064016200024b565b600081815260018301602052604081205462000516575081546001818101845560008481526020808220909301849055845484825282860190935260409020919091556200030e565b5060006200030e565b7f416363657373436f6e74726f6c3a206163636f756e7420000000000000000000815260008351620005598160178501602088016200060a565b7001034b99036b4b9b9b4b733903937b6329607d1b60179184019182015283516200058c8160288401602088016200060a565b01602801949350505050565b6020815260008251806020840152620005b98160408501602087016200060a565b601f01601f19169190910160400192915050565b60008219821115620005e357620005e362000657565b500190565b600081600019048311821515161562000605576200060562000657565b500290565b60005b83811015620006275781810151838201526020016200060d565b8381111562000637576000848401525b50505050565b6000816200064f576200064f62000657565b506000190190565b634e487b7160e01b600052601160045260246000fd5b634e487b7160e01b600052603260045260246000fd5b634e487b7160e01b600052604160045260246000fd5b61587b80620006a96000396000f3fe608060405260043610620001eb5760003560e01c80638da5cb5b116200010b578063c92d7231116200009b578063d9f774fc1162000069578063d9f774fc1462000615578063e0158abe146200062d578063ee7b098c1462000644578063f2fde38b146200066b57005b8063c92d7231146200059b578063ca15c87314620005b3578063d2d95e9814620005d8578063d547741f14620005f057005b8063a217fddf11620000d9578063a217fddf1462000515578063ad8bbc13146200052c578063c0e69af61462000551578063c395fcb3146200057657005b80638da5cb5b14620004935780639010d07c14620004b357806391d1485414620004d857806396815d2814620004fd57005b80633b9dce051162000187578063715018a61162000155578063715018a614620003e457806378c03bd614620003fc5780637ad3e1cf146200042157806382de8fe9146200045f57005b80633b9dce05146200035c5780633ccfd60b14620003815780635541ed0b146200038b5780637048027514620003bf57005b8063248a9ca311620001c5578063248a9ca314620002b95780632d34567014620002ed5780632f2ff15d146200031257806336568abe146200033757005b806301ffc9a714620001f5578063150b7a02146200022f5780631d718cb0146200029257005b36620001f357005b005b3480156200020257600080fd5b506200021a6200021436600462002599565b62000690565b60405190151581526020015b60405180910390f35b3480156200023c57600080fd5b50620002786200024e366004620022e3565b7f150b7a023d4804d13e8c85fb27262cb750cf6ba9f9dd3bb30d90f482ceeb4b1f95945050505050565b6040516001600160e01b0319909116815260200162000226565b3480156200029f57600080fd5b50620002aa60085481565b60405190815260200162000226565b348015620002c657600080fd5b50620002aa620002d836600462002529565b60009081526020819052604090206001015490565b348015620002fa57600080fd5b50620001f36200030c366004620022a3565b620006be565b3480156200031f57600080fd5b50620001f36200033136600462002543565b62000789565b3480156200034457600080fd5b50620001f36200035636600462002543565b620007b8565b3480156200036957600080fd5b50620001f36200037b366004620022a3565b6200083a565b620001f362000997565b3480156200039857600080fd5b50620003b0620003aa366004620022a3565b62000ae0565b6040516200022691906200277f565b348015620003cc57600080fd5b50620001f3620003de366004620022a3565b62000bb5565b348015620003f157600080fd5b50620001f362000d12565b3480156200040957600080fd5b506200021a6200041b366004620022a3565b62000d4d565b3480156200042e57600080fd5b506200044662000440366004620025fd565b62000d5d565b6040516001600160a01b03909116815260200162000226565b3480156200046c57600080fd5b50620004846200047e366004620022a3565b6200111d565b60405162000226919062002884565b348015620004a057600080fd5b506002546001600160a01b031662000446565b348015620004c057600080fd5b5062000446620004d236600462002576565b62001353565b348015620004e557600080fd5b506200021a620004f736600462002543565b62001374565b3480156200050a57600080fd5b50620003b06200139d565b3480156200052257600080fd5b50620002aa600081565b3480156200053957600080fd5b50620003b06200054b366004620025c5565b62001469565b3480156200055e57600080fd5b50620001f362000570366004620022a3565b62001542565b3480156200058357600080fd5b506200021a62000595366004620022a3565b62001600565b348015620005a857600080fd5b50620003b062001610565b348015620005c057600080fd5b50620002aa620005d236600462002529565b62001624565b348015620005e557600080fd5b50620002aa60095481565b348015620005fd57600080fd5b50620001f36200060f36600462002543565b6200163d565b3480156200062257600080fd5b50620003b062001667565b620001f36200063e36600462002443565b62001676565b3480156200065157600080fd5b506200065c62001852565b604051620002269190620027ce565b3480156200067857600080fd5b50620001f36200068a366004620022a3565b62001a18565b60006001600160e01b03198216635a05180f60e01b1480620006b85750620006b88262001d12565b92915050565b6002546001600160a01b03163314620006f45760405162461bcd60e51b8152600401620006eb9062002a43565b60405180910390fd5b62000702600b548262001374565b6200073b5760405162461bcd60e51b815260206004820152600860248201526727379030b236b4b760c11b6044820152606401620006eb565b62000749600b54826200163d565b6040516001600160a01b03821681527f631ff1c4e1a02c54b480a34b810e03bcee61fe38efcb243930a7f820914923e2906020015b60405180910390a150565b600082815260208190526040902060010154620007a7813362001d49565b620007b3838362001db8565b505050565b6001600160a01b03811633146200082a5760405162461bcd60e51b815260206004820152602f60248201527f416363657373436f6e74726f6c3a2063616e206f6e6c792072656e6f756e636560448201526e103937b632b9903337b91039b2b63360891b6064820152608401620006eb565b62000836828262001dde565b5050565b6002546001600160a01b03163314620008675760405162461bcd60e51b8152600401620006eb9062002a43565b62000875600a548262001374565b15620008b65760405162461bcd60e51b815260206004820152600f60248201526e105b1c9958591e4819dc985b9d1959608a1b6044820152606401620006eb565b6001600160a01b038116620009055760405162461bcd60e51b815260206004820152601460248201527316995c9bc81859191c995cdcc81a5b9d985b1a5960621b6044820152606401620006eb565b60095462000915600a5462001624565b106200094f5760405162461bcd60e51b81526020600482015260086024820152674e6f20737061636560c01b6044820152606401620006eb565b6200095d600a548262001e04565b6040516001600160a01b03821681527f021a687fbe334e9e815cee8b399c0bc42e82356eb7f63a09ddb558a25d3dcdbd906020016200077e565b6002546001600160a01b03163314620009c45760405162461bcd60e51b8152600401620006eb9062002a43565b478062000a145760405162461bcd60e51b815260206004820152601960248201527f4e6f206574686572206c65667420746f207769746864726177000000000000006044820152606401620006eb565b604051600090339083908381818185875af1925050503d806000811462000a58576040519150601f19603f3d011682016040523d82523d6000602084013e62000a5d565b606091505b505090508062000aa25760405162461bcd60e51b815260206004820152600f60248201526e151c985b9cd9995c8819985a5b1959608a1b6044820152606401620006eb565b6040805183815233602082015281517f97ff324fe72ffb332ee8f1291e8e978f529b444da86afa9a1cc08f53f710fa4a929181900390910190a15050565b6001600160a01b038116600090815260066020526040812060609162000b068262001e10565b90506000816001600160401b0381111562000b255762000b2562002bd9565b60405190808252806020026020018201604052801562000b4f578160200160208202803683370190505b50905060005b8281101562000bac5762000b6a848262001e1b565b82828151811062000b7f5762000b7f62002bc3565b6001600160a01b03909216602092830291909101909101528062000ba38162002b79565b91505062000b55565b50949350505050565b6002546001600160a01b0316331462000be25760405162461bcd60e51b8152600401620006eb9062002a43565b62000bf0600b548262001374565b1562000c315760405162461bcd60e51b815260206004820152600f60248201526e105b1c9958591e4819dc985b9d1959608a1b6044820152606401620006eb565b6001600160a01b03811662000c805760405162461bcd60e51b815260206004820152601460248201527316995c9bc81859191c995cdcc81a5b9d985b1a5960621b6044820152606401620006eb565b60085462000c90600b5462001624565b1062000cca5760405162461bcd60e51b81526020600482015260086024820152674e6f20737061636560c01b6044820152606401620006eb565b62000cd8600b548262001e04565b6040516001600160a01b03821681527f44d6d25963f097ad14f29f06854a01f575648a1ef82f30e562ccd3889717e339906020016200077e565b6002546001600160a01b0316331462000d3f5760405162461bcd60e51b8152600401620006eb9062002a43565b62000d4b600062001e29565b565b6000620006b8600a548362001374565b600062000d6e600a54620004f73390565b62000daa5760405162461bcd60e51b815260206004820152600b60248201526a139bdd08185b1b1bddd95960aa1b6044820152606401620006eb565b600062000db660045490565b90506000878787873060405162000dcd90620021e5565b62000ddd959493929190620029bd565b604051809103906000f08015801562000dfa573d6000803e3d6000fd5b5060405163f97d31d960e01b8152600481018690529091506001600160a01b0382169063f97d31d990602401600060405180830381600087803b15801562000e4157600080fd5b505af115801562000e56573d6000803e3d6000fd5b50505060008381526005602090815260409182902080546001600160a01b0319166001600160a01b0386161790558151808301909252600d82526c021b932b0ba32b21030ba101d1609d1b9082015262000eb291508262001e7b565b33600090815260066020526040902062000ecd908262001b42565b5062000efb8160078a60405162000ee59190620026e8565b9081526040519081900360200190209062001b42565b5062000f0b600480546001019055565b62000f3e6040518060400160405280600f81526020016e02a3434b99030b2323932b9b9901d1608d1b8152503062001e7b565b62000f7a60405180604001604052806011815260200170029b2b73232b91030b2323932b9b9901d1607d1b81525062000f743390565b62001e7b565b620010296040518060400160405280601981526020017f436f6e7472616374204f776e65722061646472657373203a2000000000000000815250826001600160a01b0316638da5cb5b6040518163ffffffff1660e01b815260040160206040518083038186803b15801562000fee57600080fd5b505afa15801562001003573d6000803e3d6000fd5b505050506040513d601f19601f8201168201806040525081019062000f749190620022c3565b620010cf6040518060400160405280600e81526020016d02a37b5b2b710283934b1b2901d160951b815250826001600160a01b0316632083ad826040518163ffffffff1660e01b815260040160206040518083038186803b1580156200108e57600080fd5b505afa158015620010a3573d6000803e3d6000fd5b505050506040513d601f19601f82011682018060405250810190620010c99190620026a0565b62001ec4565b604080516001600160a01b038316815233602082015281517f5d0de243db1669e3a7056744cd715c625f0c1c348736c2c2d53d0ddebff1a6c7929181900390910190a1979650505050505050565b606060006200112b60045490565b90506000816001600160401b038111156200114a576200114a62002bd9565b604051908082528060200260200182016040528015620011b057816020015b6200119c6040518060a0016040528060608152602001606081526020016060815260200160008152602001606081525090565b815260200190600190039081620011695790505b50905060005b828110156200134b57600081815260056020526040808220549051632118854760e21b81526001600160a01b03888116600483015290911691908290638462151c9060240160006040518083038186803b1580156200121457600080fd5b505afa15801562001229573d6000803e3d6000fd5b505050506040513d6000823e601f3d908101601f1916820160405262001253919081019062002472565b8051909150156200133357600080600080856001600160a01b0316637cc1f8676040518163ffffffff1660e01b815260040160006040518083038186803b1580156200129e57600080fd5b505afa158015620012b3573d6000803e3d6000fd5b505050506040513d6000823e601f3d908101601f19168201604052620012dd91908101906200238a565b955095505094509450506040518060a001604052808581526020018481526020018281526020018381526020018681525088888151811062001323576200132362002bc3565b6020026020010181905250505050505b50508080620013429062002b79565b915050620011b6565b509392505050565b60008281526001602052604081206200136d908362001e1b565b9392505050565b6000918252602082815260408084206001600160a01b0393909316845291905290205460ff1690565b60606000620013ab60045490565b90506000816001600160401b03811115620013ca57620013ca62002bd9565b604051908082528060200260200182016040528015620013f4578160200160208202803683370190505b50905060005b82811015620014625760008181526005602052604090205482516001600160a01b039091169083908390811062001435576200143562002bc3565b6001600160a01b039092166020928302919091019091015280620014598162002b79565b915050620013fa565b5092915050565b606060006007836040516200147f9190620026e8565b9081526020016040518091039020905060006200149c8262001e10565b90506000816001600160401b03811115620014bb57620014bb62002bd9565b604051908082528060200260200182016040528015620014e5578160200160208202803683370190505b50905060005b8281101562000bac5762001500848262001e1b565b82828151811062001515576200151562002bc3565b6001600160a01b039092166020928302919091019091015280620015398162002b79565b915050620014eb565b6002546001600160a01b031633146200156f5760405162461bcd60e51b8152600401620006eb9062002a43565b6200157d600a548262001374565b620015b85760405162461bcd60e51b815260206004820152600a60248201526927379031b932b0ba37b960b11b6044820152606401620006eb565b620015c6600a54826200163d565b6040516001600160a01b03821681527fc77d51d04162a5d61b26217b8a8c78870a02749a7a198336685c57d6f128fa4b906020016200077e565b6000620006b8600b548362001374565b60606200161f600a5462001f0d565b905090565b6000818152600160205260408120620006b89062001e10565b6000828152602081905260409020600101546200165b813362001d49565b620007b3838362001dde565b60606200161f600b5462001f0d565b60026003541415620016cb5760405162461bcd60e51b815260206004820152601f60248201527f5265656e7472616e637947756172643a207265656e7472616e742063616c6c006044820152606401620006eb565b600260038190555060008290506000816001600160a01b0316632083ad826040518163ffffffff1660e01b815260040160206040518083038186803b1580156200171457600080fd5b505afa15801562001729573d6000803e3d6000fd5b505050506040513d601f19601f820116820180604052508101906200174f9190620026a0565b9050620017836040518060400160405280600e81526020016d4d616e616765722050726963653d60901b8152508262001ec4565b6200178f838262002af0565b341015620017d55760405162461bcd60e51b815260206004820152601260248201527124b739bab33334b1b4b2b73a1022ba3432b960711b6044820152606401620006eb565b6001600160a01b03821663e6539e4784336040516001600160e01b031960e085901b16815260048101929092526001600160a01b03166024820152604401600060405180830381600087803b1580156200182e57600080fd5b505af115801562001843573d6000803e3d6000fd5b50506001600355505050505050565b606060006200186060045490565b90506000816001600160401b038111156200187f576200187f62002bd9565b604051908082528060200260200182016040528015620018ee57816020015b620018da6040518060a0016040528060006001600160a01b03168152602001606081526020016060815260200160008152602001600081525090565b8152602001906001900390816200189e5790505b509050600060608060008060005b8781101562001a0b57600081815260056020526040808220548151637cc1f86760e01b815291516001600160a01b03909116928392637cc1f8679260048083019392829003018186803b1580156200195357600080fd5b505afa15801562001968573d6000803e3d6000fd5b505050506040513d6000823e601f3d908101601f191682016040526200199291908101906200238a565b506040805160a0810182526001600160a01b03871681526020810186905290810184905260608101839052608081018290528d51959c50939a509198509650945090899084908110620019e957620019e962002bc3565b602002602001018190525050808062001a029062002b79565b915050620018fc565b5094979650505050505050565b6002546001600160a01b0316331462001a455760405162461bcd60e51b8152600401620006eb9062002a43565b6001600160a01b03811662001aac5760405162461bcd60e51b815260206004820152602660248201527f4f776e61626c653a206e6577206f776e657220697320746865207a65726f206160448201526564647265737360d01b6064820152608401620006eb565b62001ab78162001e29565b50565b62001ac6828262001374565b62000836576000828152602081815260408083206001600160a01b03851684529091529020805460ff1916600117905562001afe3390565b6001600160a01b0316816001600160a01b0316837f2f8788117e7eff1d82e926ec794901d17c78024a50270940304540a733656f0d60405160405180910390a45050565b60006200136d836001600160a01b03841662001fc2565b6060600062001b6a83600262002af0565b62001b7790600262002ad5565b6001600160401b0381111562001b915762001b9162002bd9565b6040519080825280601f01601f19166020018201604052801562001bbc576020820181803683370190505b509050600360fc1b8160008151811062001bda5762001bda62002bc3565b60200101906001600160f81b031916908160001a905350600f60fb1b8160018151811062001c0c5762001c0c62002bc3565b60200101906001600160f81b031916908160001a905350600062001c3284600262002af0565b62001c3f90600162002ad5565b90505b600181111562001cc1576f181899199a1a9b1b9c1cb0b131b232b360811b85600f166010811062001c775762001c7762002bc3565b1a60f81b82828151811062001c905762001c9062002bc3565b60200101906001600160f81b031916908160001a90535060049490941c9362001cb98162002b5f565b905062001c42565b5083156200136d5760405162461bcd60e51b815260206004820181905260248201527f537472696e67733a20686578206c656e67746820696e73756666696369656e746044820152606401620006eb565b60006001600160e01b03198216637965db0b60e01b1480620006b857506301ffc9a760e01b6001600160e01b0319831614620006b8565b62001d55828262001374565b620008365762001d70816001600160a01b0316601462001b59565b62001d7d83602062001b59565b60405160200162001d9092919062002706565b60408051601f198184030181529082905262461bcd60e51b8252620006eb916004016200297c565b62001dc4828262001aba565b6000828152600160205260409020620007b3908262001b42565b62001dea828262002014565b6000828152600160205260409020620007b390826200207c565b62000836828262001db8565b6000620006b8825490565b60006200136d838362002093565b600280546001600160a01b038381166001600160a01b0319831681179093556040519116919082907f8be0079c531659141344cd1fd0a4f28419497f9722a3daafe3b4186f6b6457e090600090a35050565b62000836828260405160240162001e9492919062002991565b60408051601f198184030181529190526020810180516001600160e01b031663319af33360e01b179052620020c0565b62000836828260405160240162001edd92919062002a1f565b60408051601f198184030181529190526020810180516001600160e01b03166309710a9d60e41b179052620020c0565b6060600062001f1c8362001624565b90506000816001600160401b0381111562001f3b5762001f3b62002bd9565b60405190808252806020026020018201604052801562001f65578160200160208202803683370190505b50905060005b828110156200134b5762001f80858262001353565b82828151811062001f955762001f9562002bc3565b6001600160a01b03909216602092830291909101909101528062001fb98162002b79565b91505062001f6b565b60008181526001830160205260408120546200200b57508154600181810184556000848152602080822090930184905584548482528286019093526040902091909155620006b8565b506000620006b8565b62002020828262001374565b1562000836576000828152602081815260408083206001600160a01b0385168085529252808320805460ff1916905551339285917ff6391f5c32d9c69d2a47ea670b442974b53935d1edc7fd64eb21e047a839171b9190a45050565b60006200136d836001600160a01b038416620020e1565b6000826000018281548110620020ad57620020ad62002bc3565b9060005260206000200154905092915050565b80516a636f6e736f6c652e6c6f67602083016000808483855afa5050505050565b60008181526001830160205260408120548015620021da5760006200210860018362002b12565b85549091506000906200211e9060019062002b12565b90508181146200218a57600086600001828154811062002142576200214262002bc3565b906000526020600020015490508087600001848154811062002168576200216862002bc3565b6000918252602080832090910192909255918252600188019052604090208390555b85548690806200219e576200219e62002bad565b600190038181906000526020600020016000905590558560010160008681526020019081526020016000206000905560019350505050620006b8565b6000915050620006b8565b612c408062002c0683390190565b600082601f8301126200220557600080fd5b81356200221c620022168262002aab565b62002a78565b8181528460208386010111156200223257600080fd5b816020850160208301376000918101602001919091529392505050565b600082601f8301126200226157600080fd5b815162002272620022168262002aab565b8181528460208386010111156200228857600080fd5b6200229b82602083016020870162002b2c565b949350505050565b600060208284031215620022b657600080fd5b81356200136d8162002bef565b600060208284031215620022d657600080fd5b81516200136d8162002bef565b600080600080600060808688031215620022fc57600080fd5b8535620023098162002bef565b945060208601356200231b8162002bef565b93506040860135925060608601356001600160401b03808211156200233f57600080fd5b818801915088601f8301126200235457600080fd5b8135818111156200236457600080fd5b8960208285010111156200237757600080fd5b9699959850939650602001949392505050565b60008060008060008060c08789031215620023a457600080fd5b8651620023b18162002bef565b60208801519096506001600160401b0380821115620023cf57600080fd5b620023dd8a838b016200224f565b96506040890151915080821115620023f457600080fd5b620024028a838b016200224f565b9550606089015194506080890151935060a08901519150808211156200242757600080fd5b506200243689828a016200224f565b9150509295509295509295565b600080604083850312156200245757600080fd5b8235620024648162002bef565b946020939093013593505050565b600060208083850312156200248657600080fd5b82516001600160401b03808211156200249e57600080fd5b818501915085601f830112620024b357600080fd5b815181811115620024c857620024c862002bd9565b8060051b9150620024db84830162002a78565b8181528481019084860184860187018a1015620024f757600080fd5b600095505b838610156200251c578051835260019590950194918601918601620024fc565b5098975050505050505050565b6000602082840312156200253c57600080fd5b5035919050565b600080604083850312156200255757600080fd5b8235915060208301356200256b8162002bef565b809150509250929050565b600080604083850312156200258a57600080fd5b50508035926020909101359150565b600060208284031215620025ac57600080fd5b81356001600160e01b0319811681146200136d57600080fd5b600060208284031215620025d857600080fd5b81356001600160401b03811115620025ef57600080fd5b6200229b84828501620021f3565b600080600080600060a086880312156200261657600080fd5b85356001600160401b03808211156200262e57600080fd5b6200263c89838a01620021f3565b965060208801359150808211156200265357600080fd5b6200266189838a01620021f3565b955060408801359150808211156200267857600080fd5b506200268788828901620021f3565b9598949750949560608101359550608001359392505050565b600060208284031215620026b357600080fd5b5051919050565b60008151808452620026d481602086016020860162002b2c565b601f01601f19169290920160200192915050565b60008251620026fc81846020870162002b2c565b9190910192915050565b7f416363657373436f6e74726f6c3a206163636f756e74200000000000000000008152600083516200274081601785016020880162002b2c565b7001034b99036b4b9b9b4b733903937b6329607d1b60179184019182015283516200277381602884016020880162002b2c565b01602801949350505050565b6020808252825182820181905260009190848201906040850190845b81811015620027c25783516001600160a01b0316835292840192918401916001016200279b565b50909695505050505050565b60006020808301818452808551808352604092508286019150828160051b87010184880160005b838110156200287657888303603f19018552815180516001600160a01b031684528781015160a0898601819052906200283182870182620026ba565b91505087820151858203898701526200284b8282620026ba565b60608481015190880152608093840151939096019290925250509386019390860190600101620027f5565b509098975050505050505050565b60006020808301818452808551808352604092508286019150828160051b8701018488016000805b848110156200296d57603f198a8503018652825160a08151818752620028d582880182620026ba565b915050898201518682038b880152620028ef8282620026ba565b915050888201518682038a880152620029098282620026ba565b60608481015190890152608093840151888203948901949094528351808252938c0193869350908c0191505b80831015620029575783518252928b019260019290920191908b019062002935565b50978a01979550505091870191600101620028ac565b50919998505050505050505050565b6020815260006200136d6020830184620026ba565b604081526000620029a66040830185620026ba565b905060018060a01b03831660208301529392505050565b60a081526000620029d260a0830188620026ba565b8281036020840152620029e68188620026ba565b90508281036040840152620029fc8187620026ba565b606084019590955250506001600160a01b03919091166080909101529392505050565b60408152600062002a346040830185620026ba565b90508260208301529392505050565b6020808252818101527f4f776e61626c653a2063616c6c6572206973206e6f7420746865206f776e6572604082015260600190565b604051601f8201601f191681016001600160401b038111828210171562002aa35762002aa362002bd9565b604052919050565b60006001600160401b0382111562002ac75762002ac762002bd9565b50601f01601f191660200190565b6000821982111562002aeb5762002aeb62002b97565b500190565b600081600019048311821515161562002b0d5762002b0d62002b97565b500290565b60008282101562002b275762002b2762002b97565b500390565b60005b8381101562002b4957818101518382015260200162002b2f565b8381111562002b59576000848401525b50505050565b60008162002b715762002b7162002b97565b506000190190565b600060001982141562002b905762002b9062002b97565b5060010190565b634e487b7160e01b600052601160045260246000fd5b634e487b7160e01b600052603160045260246000fd5b634e487b7160e01b600052603260045260246000fd5b634e487b7160e01b600052604160045260246000fd5b6001600160a01b038116811462001ab757600080fdfe6080604052662386f26fc10000600d556000600e553480156200002157600080fd5b5060405162002c4038038062002c40833981016040819052620000449162000282565b8451859085906200005d90600090602085019062000125565b5080516200007390600190602084019062000125565b505050620000906200008a620000cf60201b60201c565b620000d3565b600c80546001600160a01b0319166001600160a01b0383161790558251620000c090600f90602086019062000125565b5050600d555062000394915050565b3390565b600a80546001600160a01b038381166001600160a01b0319831681179093556040519116919082907f8be0079c531659141344cd1fd0a4f28419497f9722a3daafe3b4186f6b6457e090600090a35050565b828054620001339062000341565b90600052602060002090601f016020900481019282620001575760008555620001a2565b82601f106200017257805160ff1916838001178555620001a2565b82800160010185558215620001a2579182015b82811115620001a257825182559160200191906001019062000185565b50620001b0929150620001b4565b5090565b5b80821115620001b05760008155600101620001b5565b600082601f830112620001dd57600080fd5b81516001600160401b0380821115620001fa57620001fa6200037e565b604051601f8301601f19908116603f011681019082821181831017156200022557620002256200037e565b816040528381526020925086838588010111156200024257600080fd5b600091505b8382101562000266578582018301518183018401529082019062000247565b83821115620002785760008385830101525b9695505050505050565b600080600080600060a086880312156200029b57600080fd5b85516001600160401b0380821115620002b357600080fd5b620002c189838a01620001cb565b96506020880151915080821115620002d857600080fd5b620002e689838a01620001cb565b95506040880151915080821115620002fd57600080fd5b506200030c88828901620001cb565b60608801516080890151919550935090506001600160a01b03811681146200033357600080fd5b809150509295509295909350565b600181811c908216806200035657607f821691505b602082108114156200037857634e487b7160e01b600052602260045260246000fd5b50919050565b634e487b7160e01b600052604160045260246000fd5b61289c80620003a46000396000f3fe6080604052600436106101ee5760003560e01c806370a082311161010d578063b88d4fde116100a0578063e6539e471161006f578063e6539e471461054c578063e985e9c51461056c578063ebc9bd3b146105b5578063f2fde38b146105ca578063f97d31d9146105ea57600080fd5b8063b88d4fde146104e1578063c87b56dd14610501578063d547cfb714610521578063dac6db1c1461053657600080fd5b80638da5cb5b116100dc5780638da5cb5b1461046e57806395d89b411461048c57806398ca7795146104a1578063a22cb465146104c157600080fd5b806370a08231146103e5578063715018a6146104055780637cc1f8671461041a5780638462151c1461044157600080fd5b80632f745c591161018557806342842e0e1161015457806342842e0e146103655780634f6ccce71461038557806355f804b3146103a55780636352211e146103c557600080fd5b80632f745c591461031257806332cb6b0c1461033257806334eafb11146103485780633ccfd60b1461035d57600080fd5b806309d42b30116101c157806309d42b30146102a457806318160ddd146102c85780632083ad82146102dd57806323b872dd146102f257600080fd5b806301ffc9a7146101f357806306fdde0314610228578063081812fc1461024a578063095ea7b314610282575b600080fd5b3480156101ff57600080fd5b5061021361020e36600461231e565b61060a565b60405190151581526020015b60405180910390f35b34801561023457600080fd5b5061023d61061b565b60405161021f919061251c565b34801561025657600080fd5b5061026a6102653660046123a1565b6106ad565b6040516001600160a01b03909116815260200161021f565b34801561028e57600080fd5b506102a261029d3660046122d7565b610747565b005b3480156102b057600080fd5b506102ba6101f481565b60405190815260200161021f565b3480156102d457600080fd5b506008546102ba565b3480156102e957600080fd5b50600d546102ba565b3480156102fe57600080fd5b506102a261030d3660046121e8565b61085d565b34801561031e57600080fd5b506102ba61032d3660046122d7565b61088e565b34801561033e57600080fd5b506102ba61138881565b34801561035457600080fd5b506102ba610924565b6102a2610934565b34801561037157600080fd5b506102a26103803660046121e8565b610a73565b34801561039157600080fd5b506102ba6103a03660046123a1565b610a8e565b3480156103b157600080fd5b506102a26103c0366004612358565b610b21565b3480156103d157600080fd5b5061026a6103e03660046123a1565b610c3b565b3480156103f157600080fd5b506102ba610400366004612193565b610cb2565b34801561041157600080fd5b506102a2610d39565b34801561042657600080fd5b5061042f610d6f565b60405161021f96959493929190612475565b34801561044d57600080fd5b5061046161045c366004612193565b610dab565b60405161021f91906124d8565b34801561047a57600080fd5b50600a546001600160a01b031661026a565b34801561049857600080fd5b5061023d610e4d565b3480156104ad57600080fd5b506102a26104bc3660046123a1565b610e5c565b3480156104cd57600080fd5b506102a26104dc3660046122a0565b610eea565b3480156104ed57600080fd5b506102a26104fc366004612224565b610ef9565b34801561050d57600080fd5b5061023d61051c3660046123a1565b610f31565b34801561052d57600080fd5b5061023d61100c565b34801561054257600080fd5b506102ba600d5481565b34801561055857600080fd5b506102a26105673660046123ba565b61109a565b34801561057857600080fd5b506102136105873660046121b5565b6001600160a01b03918216600090815260056020908152604080832093909416825291909152205460ff1690565b3480156105c157600080fd5b50600e546102ba565b3480156105d657600080fd5b506102a26105e5366004612193565b6111fb565b3480156105f657600080fd5b506102a26106053660046123a1565b611296565b6000610615826114b1565b92915050565b60606000805461062a9061276a565b80601f01602080910402602001604051908101604052809291908181526020018280546106569061276a565b80156106a35780601f10610678576101008083540402835291602001916106a3565b820191906000526020600020905b81548152906001019060200180831161068657829003601f168201915b5050505050905090565b6000818152600260205260408120546001600160a01b031661072b5760405162461bcd60e51b815260206004820152602c60248201527f4552433732313a20617070726f76656420717565727920666f72206e6f6e657860448201526b34b9ba32b73a103a37b5b2b760a11b60648201526084015b60405180910390fd5b506000908152600460205260409020546001600160a01b031690565b600061075282610c3b565b9050806001600160a01b0316836001600160a01b031614156107c05760405162461bcd60e51b815260206004820152602160248201527f4552433732313a20617070726f76616c20746f2063757272656e74206f776e656044820152603960f91b6064820152608401610722565b336001600160a01b03821614806107dc57506107dc8133610587565b61084e5760405162461bcd60e51b815260206004820152603860248201527f4552433732313a20617070726f76652063616c6c6572206973206e6f74206f7760448201527f6e6572206e6f7220617070726f76656420666f7220616c6c00000000000000006064820152608401610722565b61085883836114d6565b505050565b6108673382611544565b6108835760405162461bcd60e51b8152600401610722906126aa565b61085883838361163b565b600061089983610cb2565b82106108fb5760405162461bcd60e51b815260206004820152602b60248201527f455243373231456e756d657261626c653a206f776e657220696e646578206f7560448201526a74206f6620626f756e647360a81b6064820152608401610722565b506001600160a01b03919091166000908152600660209081526040808320938352929052205490565b600061092f600b5490565b905090565b600a546001600160a01b0316331461095e5760405162461bcd60e51b815260040161072290612675565b47806109ac5760405162461bcd60e51b815260206004820152601960248201527f4e6f206574686572206c65667420746f207769746864726177000000000000006044820152606401610722565b604051600090339083908381818185875af1925050503d80600081146109ee576040519150601f19603f3d011682016040523d82523d6000602084013e6109f3565b606091505b5050905080610a365760405162461bcd60e51b815260206004820152600f60248201526e151c985b9cd9995c8819985a5b1959608a1b6044820152606401610722565b604080518381523360208201527f97ff324fe72ffb332ee8f1291e8e978f529b444da86afa9a1cc08f53f710fa4a91015b60405180910390a15050565b61085883838360405180602001604052806000815250610ef9565b6000610a9960085490565b8210610afc5760405162461bcd60e51b815260206004820152602c60248201527f455243373231456e756d657261626c653a20676c6f62616c20696e646578206f60448201526b7574206f6620626f756e647360a01b6064820152608401610722565b60088281548110610b0f57610b0f612816565b90600052602060002001549050919050565b600c546001600160a01b031663c395fcb3336040516001600160e01b031960e084901b1681526001600160a01b03909116600482015260240160206040518083038186803b158015610b7257600080fd5b505afa158015610b86573d6000803e3d6000fd5b505050506040513d601f19601f82011682018060405250810190610baa9190612301565b610bec5760405162461bcd60e51b81526020600482015260136024820152724f6e6c792061646d696e20706f737369626c6560681b6044820152606401610722565b8051610bff90600f906020840190612068565b507f6741b2fc379fad678116fe3d4d4b9a1a184ab53ba36b86ad0fa66340b1ab41ad600f604051610c30919061257b565b60405180910390a150565b6000818152600260205260408120546001600160a01b0316806106155760405162461bcd60e51b815260206004820152602960248201527f4552433732313a206f776e657220717565727920666f72206e6f6e657869737460448201526832b73a103a37b5b2b760b91b6064820152608401610722565b60006001600160a01b038216610d1d5760405162461bcd60e51b815260206004820152602a60248201527f4552433732313a2062616c616e636520717565727920666f7220746865207a65604482015269726f206164647265737360b01b6064820152608401610722565b506001600160a01b031660009081526003602052604090205490565b600a546001600160a01b03163314610d635760405162461bcd60e51b815260040161072290612675565b610d6d60006117e6565b565b6000606080600080606030610d8261061b565b610d8a610e4d565b600b54600d54610d98611838565b949b939a50919850965094509092509050565b60606000610db883610cb2565b905060008167ffffffffffffffff811115610dd557610dd561282c565b604051908082528060200260200182016040528015610dfe578160200160208202803683370190505b50905060005b82811015610e4557610e16858261088e565b828281518110610e2857610e28612816565b602090810291909101015280610e3d816127a5565b915050610e04565b509392505050565b60606001805461062a9061276a565b600e5415610eac5760405162461bcd60e51b815260206004820152601b60248201527f4e6f742061626c6520746f2073657420616674657220747261646500000000006044820152606401610722565b600d80549082905560408051828152602081018490527f0bfd84f586f186e4e2a0b575593a4b4b7735b4229f86de082fd9662d9324bb279101610a67565b610ef5338383611847565b5050565b610f033383611544565b610f1f5760405162461bcd60e51b8152600401610722906126aa565b610f2b84848484611916565b50505050565b6000818152600260205260409020546060906001600160a01b0316610fb05760405162461bcd60e51b815260206004820152602f60248201527f4552433732314d657461646174613a2055524920717565727920666f72206e6f60448201526e3732bc34b9ba32b73a103a37b5b2b760891b6064820152608401610722565b6000610fba611838565b805190915015610ff65780610fce84611949565b604051602001610fdf929190612409565b604051602081830303815290604052915050919050565b5050604080516020810190915260008152919050565b600f80546110199061276a565b80601f01602080910402602001604051908101604052809291908181526020018280546110459061276a565b80156110925780601f1061106757610100808354040283529160200191611092565b820191906000526020600020905b81548152906001019060200180831161107557829003601f168201915b505050505081565b600a546001600160a01b031633146110c45760405162461bcd60e51b815260040161072290612675565b60006110cf600b5490565b90508083600e546110e091906126fb565b11156111235760405162461bcd60e51b8152602060048201526012602482015271496e73756666696369656e74206974656d7360701b6044820152606401610722565b60005b838110156111745761114c611143600a546001600160a01b031690565b84600e54610a73565b600e805490600061115c836127a5565b9190505550808061116c906127a5565b915050611126565b506111ad60405180604001604052806016815260200175027232a1021b7b73a3930b1ba101d1036b4b73a32b2160551b81525084611a47565b600e54604080518581523360208201528082018490526060810192909252517f0713ae16a171f65c6877fd4bff12d9157605b607ef798a53c771cbadd0892ff49181900360800190a1505050565b600a546001600160a01b031633146112255760405162461bcd60e51b815260040161072290612675565b6001600160a01b03811661128a5760405162461bcd60e51b815260206004820152602660248201527f4f776e61626c653a206e6577206f776e657220697320746865207a65726f206160448201526564647265737360d01b6064820152608401610722565b611293816117e6565b50565b600a546001600160a01b031633146112c05760405162461bcd60e51b815260040161072290612675565b6112f76040518060400160405280600f81526020016e4372656174696e67204e465420627960881b8152506112f23390565b611a8c565b6000611302600b5490565b905061138861131183836126fb565b11156113525760405162461bcd60e51b815260206004820152601060248201526f4e6f7420656e6f75676820737061636560801b6044820152606401610722565b61138960405180604001604052806015815260200174021b932b0ba34b7339027232a1031b7bab73a101d1605d1b81525083611a47565b60008211801561139b57506101f48211155b6113d75760405162461bcd60e51b815260206004820152600d60248201526c10dbdd5b9d081a5b9d985b1a59609a1b6044820152606401610722565b600b541561141c5760405162461bcd60e51b8152602060048201526012602482015271105919081a5cc81b9bdd08185b1b1bddd95960721b6044820152606401610722565b60005b828110156114415761142f611ad1565b80611439816127a5565b91505061141f565b506114816040518060400160405280601781526020017f4e465420436f6e7472616374203a20637265617465642000000000000000000081525083611a47565b6040518281527fdb6b58dc67f2abe3f234d78a4504456862f5403a87f22cd3b7945005b71edac390602001610a67565b60006001600160e01b0319821663780e9d6360e01b1480610615575061061582611b07565b600081815260046020526040902080546001600160a01b0319166001600160a01b038416908117909155819061150b82610c3b565b6001600160a01b03167f8c5be1e5ebec7d5bd14f71427d1e84f3dd0314c0f7b2291e5b200ac8c7c3b92560405160405180910390a45050565b6000818152600260205260408120546001600160a01b03166115bd5760405162461bcd60e51b815260206004820152602c60248201527f4552433732313a206f70657261746f7220717565727920666f72206e6f6e657860448201526b34b9ba32b73a103a37b5b2b760a11b6064820152608401610722565b60006115c883610c3b565b9050806001600160a01b0316846001600160a01b031614806116035750836001600160a01b03166115f8846106ad565b6001600160a01b0316145b8061163357506001600160a01b0380821660009081526005602090815260408083209388168352929052205460ff165b949350505050565b826001600160a01b031661164e82610c3b565b6001600160a01b0316146116b65760405162461bcd60e51b815260206004820152602960248201527f4552433732313a207472616e73666572206f6620746f6b656e2074686174206960448201526839903737ba1037bbb760b91b6064820152608401610722565b6001600160a01b0382166117185760405162461bcd60e51b8152602060048201526024808201527f4552433732313a207472616e7366657220746f20746865207a65726f206164646044820152637265737360e01b6064820152608401610722565b611723838383611b57565b61172e6000826114d6565b6001600160a01b0383166000908152600360205260408120805460019290611757908490612727565b90915550506001600160a01b03821660009081526003602052604081208054600192906117859084906126fb565b909155505060008181526002602052604080822080546001600160a01b0319166001600160a01b0386811691821790925591518493918716917fddf252ad1be2c89b69c2b068fc378daa952ba7f163c4a11628f55a4df523b3ef91a4505050565b600a80546001600160a01b038381166001600160a01b0319831681179093556040519116919082907f8be0079c531659141344cd1fd0a4f28419497f9722a3daafe3b4186f6b6457e090600090a35050565b6060600f805461062a9061276a565b816001600160a01b0316836001600160a01b031614156118a95760405162461bcd60e51b815260206004820152601960248201527f4552433732313a20617070726f766520746f2063616c6c6572000000000000006044820152606401610722565b6001600160a01b03838116600081815260056020908152604080832094871680845294825291829020805460ff191686151590811790915591519182527f17307eab39ab6107e8899845ad3d59bd9653f200f220920489ca2b5937696c31910160405180910390a3505050565b61192184848461163b565b61192d84848484611c0f565b610f2b5760405162461bcd60e51b815260040161072290612623565b60608161196d5750506040805180820190915260018152600360fc1b602082015290565b8160005b81156119975780611981816127a5565b91506119909050600a83612713565b9150611971565b60008167ffffffffffffffff8111156119b2576119b261282c565b6040519080825280601f01601f1916602001820160405280156119dc576020820181803683370190505b5090505b8415611633576119f1600183612727565b91506119fe600a866127c0565b611a099060306126fb565b60f81b818381518110611a1e57611a1e612816565b60200101906001600160f81b031916908160001a905350611a40600a86612713565b94506119e0565b610ef58282604051602401611a5d929190612559565b60408051601f198184030181529190526020810180516001600160e01b03166309710a9d60e41b179052611d1c565b610ef58282604051602401611aa292919061252f565b60408051601f198184030181529190526020810180516001600160e01b031663319af33360e01b179052611d1c565b6000611adc600b5490565b9050611af9611af3600a546001600160a01b031690565b82611d3d565b611293600b80546001019055565b60006001600160e01b031982166380ac58cd60e01b1480611b3857506001600160e01b03198216635b5e139f60e01b145b8061061557506301ffc9a760e01b6001600160e01b0319831614610615565b6001600160a01b038316611bb257611bad81600880546000838152600960205260408120829055600182018355919091527ff3f7a9fe364faab93b216da50a3214154f22a0a2b415b23a84c8169e8b636ee30155565b611bd5565b816001600160a01b0316836001600160a01b031614611bd557611bd58382611d57565b6001600160a01b038216611bec5761085881611df4565b826001600160a01b0316826001600160a01b031614610858576108588282611ea3565b60006001600160a01b0384163b15611d1157604051630a85bd0160e11b81526001600160a01b0385169063150b7a0290611c53903390899088908890600401612438565b602060405180830381600087803b158015611c6d57600080fd5b505af1925050508015611c9d575060408051601f3d908101601f19168201909252611c9a9181019061233b565b60015b611cf7573d808015611ccb576040519150601f19603f3d011682016040523d82523d6000602084013e611cd0565b606091505b508051611cef5760405162461bcd60e51b815260040161072290612623565b805181602001fd5b6001600160e01b031916630a85bd0160e11b149050611633565b506001949350505050565b80516a636f6e736f6c652e6c6f67602083016000808483855afa5050505050565b610ef5828260405180602001604052806000815250611ee7565b60006001611d6484610cb2565b611d6e9190612727565b600083815260076020526040902054909150808214611dc1576001600160a01b03841660009081526006602090815260408083208584528252808320548484528184208190558352600790915290208190555b5060009182526007602090815260408084208490556001600160a01b039094168352600681528383209183525290812055565b600854600090611e0690600190612727565b60008381526009602052604081205460088054939450909284908110611e2e57611e2e612816565b906000526020600020015490508060088381548110611e4f57611e4f612816565b6000918252602080832090910192909255828152600990915260408082208490558582528120556008805480611e8757611e87612800565b6001900381819060005260206000200160009055905550505050565b6000611eae83610cb2565b6001600160a01b039093166000908152600660209081526040808320868452825280832085905593825260079052919091209190915550565b611ef18383611f1a565b611efe6000848484611c0f565b6108585760405162461bcd60e51b815260040161072290612623565b6001600160a01b038216611f705760405162461bcd60e51b815260206004820181905260248201527f4552433732313a206d696e7420746f20746865207a65726f20616464726573736044820152606401610722565b6000818152600260205260409020546001600160a01b031615611fd55760405162461bcd60e51b815260206004820152601c60248201527f4552433732313a20746f6b656e20616c7265616479206d696e746564000000006044820152606401610722565b611fe160008383611b57565b6001600160a01b038216600090815260036020526040812080546001929061200a9084906126fb565b909155505060008181526002602052604080822080546001600160a01b0319166001600160a01b03861690811790915590518392907fddf252ad1be2c89b69c2b068fc378daa952ba7f163c4a11628f55a4df523b3ef908290a45050565b8280546120749061276a565b90600052602060002090601f01602090048101928261209657600085556120dc565b82601f106120af57805160ff19168380011785556120dc565b828001600101855582156120dc579182015b828111156120dc5782518255916020019190600101906120c1565b506120e89291506120ec565b5090565b5b808211156120e857600081556001016120ed565b600067ffffffffffffffff8084111561211c5761211c61282c565b604051601f8501601f19908116603f011681019082821181831017156121445761214461282c565b8160405280935085815286868601111561215d57600080fd5b858560208301376000602087830101525050509392505050565b80356001600160a01b038116811461218e57600080fd5b919050565b6000602082840312156121a557600080fd5b6121ae82612177565b9392505050565b600080604083850312156121c857600080fd5b6121d183612177565b91506121df60208401612177565b90509250929050565b6000806000606084860312156121fd57600080fd5b61220684612177565b925061221460208501612177565b9150604084013590509250925092565b6000806000806080858703121561223a57600080fd5b61224385612177565b935061225160208601612177565b925060408501359150606085013567ffffffffffffffff81111561227457600080fd5b8501601f8101871361228557600080fd5b61229487823560208401612101565b91505092959194509250565b600080604083850312156122b357600080fd5b6122bc83612177565b915060208301356122cc81612842565b809150509250929050565b600080604083850312156122ea57600080fd5b6122f383612177565b946020939093013593505050565b60006020828403121561231357600080fd5b81516121ae81612842565b60006020828403121561233057600080fd5b81356121ae81612850565b60006020828403121561234d57600080fd5b81516121ae81612850565b60006020828403121561236a57600080fd5b813567ffffffffffffffff81111561238157600080fd5b8201601f8101841361239257600080fd5b61163384823560208401612101565b6000602082840312156123b357600080fd5b5035919050565b600080604083850312156123cd57600080fd5b823591506121df60208401612177565b600081518084526123f581602086016020860161273e565b601f01601f19169290920160200192915050565b6000835161241b81846020880161273e565b83519083019061242f81836020880161273e565b01949350505050565b6001600160a01b038581168252841660208201526040810183905260806060820181905260009061246b908301846123dd565b9695505050505050565b6001600160a01b038716815260c060208201819052600090612499908301886123dd565b82810360408401526124ab81886123dd565b905085606084015284608084015282810360a08401526124cb81856123dd565b9998505050505050505050565b6020808252825182820181905260009190848201906040850190845b81811015612510578351835292840192918401916001016124f4565b50909695505050505050565b6020815260006121ae60208301846123dd565b60408152600061254260408301856123dd565b905060018060a01b03831660208301529392505050565b60408152600061256c60408301856123dd565b90508260208301529392505050565b600060208083526000845481600182811c91508083168061259d57607f831692505b8583108114156125bb57634e487b7160e01b85526022600452602485fd5b8786018381526020018180156125d857600181146125e957612614565b60ff19861682528782019650612614565b60008b81526020902060005b8681101561260e578154848201529085019089016125f5565b83019750505b50949998505050505050505050565b60208082526032908201527f4552433732313a207472616e7366657220746f206e6f6e20455243373231526560408201527131b2b4bb32b91034b6b83632b6b2b73a32b960711b606082015260800190565b6020808252818101527f4f776e61626c653a2063616c6c6572206973206e6f7420746865206f776e6572604082015260600190565b60208082526031908201527f4552433732313a207472616e736665722063616c6c6572206973206e6f74206f6040820152701ddb995c881b9bdc88185c1c1c9bdd9959607a1b606082015260800190565b6000821982111561270e5761270e6127d4565b500190565b600082612722576127226127ea565b500490565b600082821015612739576127396127d4565b500390565b60005b83811015612759578181015183820152602001612741565b83811115610f2b5750506000910152565b600181811c9082168061277e57607f821691505b6020821081141561279f57634e487b7160e01b600052602260045260246000fd5b50919050565b60006000198214156127b9576127b96127d4565b5060010190565b6000826127cf576127cf6127ea565b500690565b634e487b7160e01b600052601160045260246000fd5b634e487b7160e01b600052601260045260246000fd5b634e487b7160e01b600052603160045260246000fd5b634e487b7160e01b600052603260045260246000fd5b634e487b7160e01b600052604160045260246000fd5b801515811461129357600080fd5b6001600160e01b03198116811461129357600080fdfea2646970667358221220ec90fb11c627c870dd334b58a3cd1bddceb7e892b801e0e49e7dcf4bfbab857964736f6c63430008070033a26469706673582212200183b63da7d6a4cbb0a69f3dad8bacce3fc2aee41aeef6e774356d7d5c202a0f64736f6c63430008070033",
  "linkReferences": {},
  "deployedLinkReferences": {}
}