{
  "_format": "hh-sol-artifact-1",
  "contractName": "NFTCollectible",
  "sourceName": "contracts/NFTCollectible.sol",
  "abi": [
    {
      "inputs": [
        {
          "internalType": "string",
          "name": "tokenName",
          "type": "string"
        },
        {
          "internalType": "string",
          "name": "tokenSymbol",
          "type": "string"
        },
        {
          "internalType": "string",
          "name": "baseURI",
          "type": "string"
        },
        {
          "internalType": "uint256",
          "name": "tokenPrice",
          "type": "uint256"
        },
        {
          "internalType": "address",
          "name": "collectionManager",
          "type": "address"
        }
      ],
      "stateMutability": "nonpayable",
      "type": "constructor"
    },
    {
      "anonymous": false,
      "inputs": [
        {
          "indexed": true,
          "internalType": "address",
          "name": "owner",
          "type": "address"
        },
        {
          "indexed": true,
          "internalType": "address",
          "name": "approved",
          "type": "address"
        },
        {
          "indexed": true,
          "internalType": "uint256",
          "name": "tokenId",
          "type": "uint256"
        }
      ],
      "name": "Approval",
      "type": "event"
    },
    {
      "anonymous": false,
      "inputs": [
        {
          "indexed": true,
          "internalType": "address",
          "name": "owner",
          "type": "address"
        },
        {
          "indexed": true,
          "internalType": "address",
          "name": "operator",
          "type": "address"
        },
        {
          "indexed": false,
          "internalType": "bool",
          "name": "approved",
          "type": "bool"
        }
      ],
      "name": "ApprovalForAll",
      "type": "event"
    },
    {
      "anonymous": false,
      "inputs": [
        {
          "indexed": false,
          "internalType": "string",
          "name": "baseURI",
          "type": "string"
        }
      ],
      "name": "BaseURIUpdated",
      "type": "event"
    },
    {
      "anonymous": false,
      "inputs": [
        {
          "indexed": false,
          "internalType": "uint256",
          "name": "oldPrice",
          "type": "uint256"
        },
        {
          "indexed": false,
          "internalType": "uint256",
          "name": "newPrice",
          "type": "uint256"
        }
      ],
      "name": "ItemPriceUpdated",
      "type": "event"
    },
    {
      "anonymous": false,
      "inputs": [
        {
          "indexed": false,
          "internalType": "uint256",
          "name": "count",
          "type": "uint256"
        }
      ],
      "name": "NFTCreated",
      "type": "event"
    },
    {
      "anonymous": false,
      "inputs": [
        {
          "indexed": false,
          "internalType": "uint256",
          "name": "count",
          "type": "uint256"
        },
        {
          "indexed": false,
          "internalType": "address",
          "name": "to",
          "type": "address"
        },
        {
          "indexed": false,
          "internalType": "uint256",
          "name": "totalCount",
          "type": "uint256"
        },
        {
          "indexed": false,
          "internalType": "uint256",
          "name": "totalMinted",
          "type": "uint256"
        }
      ],
      "name": "NFTMinted",
      "type": "event"
    },
    {
      "anonymous": false,
      "inputs": [
        {
          "indexed": true,
          "internalType": "address",
          "name": "previousOwner",
          "type": "address"
        },
        {
          "indexed": true,
          "internalType": "address",
          "name": "newOwner",
          "type": "address"
        }
      ],
      "name": "OwnershipTransferred",
      "type": "event"
    },
    {
      "anonymous": false,
      "inputs": [
        {
          "indexed": true,
          "internalType": "address",
          "name": "from",
          "type": "address"
        },
        {
          "indexed": true,
          "internalType": "address",
          "name": "to",
          "type": "address"
        },
        {
          "indexed": true,
          "internalType": "uint256",
          "name": "tokenId",
          "type": "uint256"
        }
      ],
      "name": "Transfer",
      "type": "event"
    },
    {
      "anonymous": false,
      "inputs": [
        {
          "indexed": false,
          "internalType": "uint256",
          "name": "amount",
          "type": "uint256"
        },
        {
          "indexed": false,
          "internalType": "address",
          "name": "to",
          "type": "address"
        }
      ],
      "name": "WithDraw",
      "type": "event"
    },
    {
      "inputs": [],
      "name": "MAX_PER_MINT",
      "outputs": [
        {
          "internalType": "uint256",
          "name": "",
          "type": "uint256"
        }
      ],
      "stateMutability": "view",
      "type": "function"
    },
    {
      "inputs": [],
      "name": "MAX_SUPPLY",
      "outputs": [
        {
          "internalType": "uint256",
          "name": "",
          "type": "uint256"
        }
      ],
      "stateMutability": "view",
      "type": "function"
    },
    {
      "inputs": [
        {
          "internalType": "address",
          "name": "to",
          "type": "address"
        },
        {
          "internalType": "uint256",
          "name": "tokenId",
          "type": "uint256"
        }
      ],
      "name": "approve",
      "outputs": [],
      "stateMutability": "nonpayable",
      "type": "function"
    },
    {
      "inputs": [
        {
          "internalType": "address",
          "name": "owner",
          "type": "address"
        }
      ],
      "name": "balanceOf",
      "outputs": [
        {
          "internalType": "uint256",
          "name": "",
          "type": "uint256"
        }
      ],
      "stateMutability": "view",
      "type": "function"
    },
    {
      "inputs": [],
      "name": "baseTokenURI",
      "outputs": [
        {
          "internalType": "string",
          "name": "",
          "type": "string"
        }
      ],
      "stateMutability": "view",
      "type": "function"
    },
    {
      "inputs": [
        {
          "internalType": "uint256",
          "name": "_count",
          "type": "uint256"
        }
      ],
      "name": "createNFTs",
      "outputs": [],
      "stateMutability": "nonpayable",
      "type": "function"
    },
    {
      "inputs": [
        {
          "internalType": "uint256",
          "name": "tokenId",
          "type": "uint256"
        }
      ],
      "name": "getApproved",
      "outputs": [
        {
          "internalType": "address",
          "name": "",
          "type": "address"
        }
      ],
      "stateMutability": "view",
      "type": "function"
    },
    {
      "inputs": [],
      "name": "getContractInfo",
      "outputs": [
        {
          "internalType": "address",
          "name": "",
          "type": "address"
        },
        {
          "internalType": "string",
          "name": "",
          "type": "string"
        },
        {
          "internalType": "string",
          "name": "",
          "type": "string"
        },
        {
          "internalType": "uint256",
          "name": "",
          "type": "uint256"
        },
        {
          "internalType": "uint256",
          "name": "",
          "type": "uint256"
        },
        {
          "internalType": "string",
          "name": "",
          "type": "string"
        }
      ],
      "stateMutability": "view",
      "type": "function"
    },
    {
      "inputs": [],
      "name": "getItemPrice",
      "outputs": [
        {
          "internalType": "uint256",
          "name": "",
          "type": "uint256"
        }
      ],
      "stateMutability": "view",
      "type": "function"
    },
    {
      "inputs": [],
      "name": "getMintedCount",
      "outputs": [
        {
          "internalType": "uint256",
          "name": "",
          "type": "uint256"
        }
      ],
      "stateMutability": "view",
      "type": "function"
    },
    {
      "inputs": [
        {
          "internalType": "address",
          "name": "owner",
          "type": "address"
        },
        {
          "internalType": "address",
          "name": "operator",
          "type": "address"
        }
      ],
      "name": "isApprovedForAll",
      "outputs": [
        {
          "internalType": "bool",
          "name": "",
          "type": "bool"
        }
      ],
      "stateMutability": "view",
      "type": "function"
    },
    {
      "inputs": [],
      "name": "itemPrice",
      "outputs": [
        {
          "internalType": "uint256",
          "name": "",
          "type": "uint256"
        }
      ],
      "stateMutability": "view",
      "type": "function"
    },
    {
      "inputs": [
        {
          "internalType": "uint256",
          "name": "count",
          "type": "uint256"
        },
        {
          "internalType": "address",
          "name": "to",
          "type": "address"
        }
      ],
      "name": "mintNFTs",
      "outputs": [],
      "stateMutability": "nonpayable",
      "type": "function"
    },
    {
      "inputs": [],
      "name": "name",
      "outputs": [
        {
          "internalType": "string",
          "name": "",
          "type": "string"
        }
      ],
      "stateMutability": "view",
      "type": "function"
    },
    {
      "inputs": [],
      "name": "owner",
      "outputs": [
        {
          "internalType": "address",
          "name": "",
          "type": "address"
        }
      ],
      "stateMutability": "view",
      "type": "function"
    },
    {
      "inputs": [
        {
          "internalType": "uint256",
          "name": "tokenId",
          "type": "uint256"
        }
      ],
      "name": "ownerOf",
      "outputs": [
        {
          "internalType": "address",
          "name": "",
          "type": "address"
        }
      ],
      "stateMutability": "view",
      "type": "function"
    },
    {
      "inputs": [],
      "name": "renounceOwnership",
      "outputs": [],
      "stateMutability": "nonpayable",
      "type": "function"
    },
    {
      "inputs": [
        {
          "internalType": "address",
          "name": "from",
          "type": "address"
        },
        {
          "internalType": "address",
          "name": "to",
          "type": "address"
        },
        {
          "internalType": "uint256",
          "name": "tokenId",
          "type": "uint256"
        }
      ],
      "name": "safeTransferFrom",
      "outputs": [],
      "stateMutability": "nonpayable",
      "type": "function"
    },
    {
      "inputs": [
        {
          "internalType": "address",
          "name": "from",
          "type": "address"
        },
        {
          "internalType": "address",
          "name": "to",
          "type": "address"
        },
        {
          "internalType": "uint256",
          "name": "tokenId",
          "type": "uint256"
        },
        {
          "internalType": "bytes",
          "name": "_data",
          "type": "bytes"
        }
      ],
      "name": "safeTransferFrom",
      "outputs": [],
      "stateMutability": "nonpayable",
      "type": "function"
    },
    {
      "inputs": [
        {
          "internalType": "address",
          "name": "operator",
          "type": "address"
        },
        {
          "internalType": "bool",
          "name": "approved",
          "type": "bool"
        }
      ],
      "name": "setApprovalForAll",
      "outputs": [],
      "stateMutability": "nonpayable",
      "type": "function"
    },
    {
      "inputs": [
        {
          "internalType": "string",
          "name": "_baseTokenURI",
          "type": "string"
        }
      ],
      "name": "setBaseURI",
      "outputs": [],
      "stateMutability": "nonpayable",
      "type": "function"
    },
    {
      "inputs": [
        {
          "internalType": "uint256",
          "name": "newItemPrice",
          "type": "uint256"
        }
      ],
      "name": "setItemPrice",
      "outputs": [],
      "stateMutability": "nonpayable",
      "type": "function"
    },
    {
      "inputs": [
        {
          "internalType": "bytes4",
          "name": "interfaceId",
          "type": "bytes4"
        }
      ],
      "name": "supportsInterface",
      "outputs": [
        {
          "internalType": "bool",
          "name": "",
          "type": "bool"
        }
      ],
      "stateMutability": "view",
      "type": "function"
    },
    {
      "inputs": [],
      "name": "symbol",
      "outputs": [
        {
          "internalType": "string",
          "name": "",
          "type": "string"
        }
      ],
      "stateMutability": "view",
      "type": "function"
    },
    {
      "inputs": [
        {
          "internalType": "uint256",
          "name": "index",
          "type": "uint256"
        }
      ],
      "name": "tokenByIndex",
      "outputs": [
        {
          "internalType": "uint256",
          "name": "",
          "type": "uint256"
        }
      ],
      "stateMutability": "view",
      "type": "function"
    },
    {
      "inputs": [
        {
          "internalType": "address",
          "name": "owner",
          "type": "address"
        },
        {
          "internalType": "uint256",
          "name": "index",
          "type": "uint256"
        }
      ],
      "name": "tokenOfOwnerByIndex",
      "outputs": [
        {
          "internalType": "uint256",
          "name": "",
          "type": "uint256"
        }
      ],
      "stateMutability": "view",
      "type": "function"
    },
    {
      "inputs": [
        {
          "internalType": "uint256",
          "name": "tokenId",
          "type": "uint256"
        }
      ],
      "name": "tokenURI",
      "outputs": [
        {
          "internalType": "string",
          "name": "",
          "type": "string"
        }
      ],
      "stateMutability": "view",
      "type": "function"
    },
    {
      "inputs": [
        {
          "internalType": "address",
          "name": "_owner",
          "type": "address"
        }
      ],
      "name": "tokensOfOwner",
      "outputs": [
        {
          "internalType": "uint256[]",
          "name": "",
          "type": "uint256[]"
        }
      ],
      "stateMutability": "view",
      "type": "function"
    },
    {
      "inputs": [],
      "name": "totalCount",
      "outputs": [
        {
          "internalType": "uint256",
          "name": "",
          "type": "uint256"
        }
      ],
      "stateMutability": "view",
      "type": "function"
    },
    {
      "inputs": [],
      "name": "totalSupply",
      "outputs": [
        {
          "internalType": "uint256",
          "name": "",
          "type": "uint256"
        }
      ],
      "stateMutability": "view",
      "type": "function"
    },
    {
      "inputs": [
        {
          "internalType": "address",
          "name": "from",
          "type": "address"
        },
        {
          "internalType": "address",
          "name": "to",
          "type": "address"
        },
        {
          "internalType": "uint256",
          "name": "tokenId",
          "type": "uint256"
        }
      ],
      "name": "transferFrom",
      "outputs": [],
      "stateMutability": "nonpayable",
      "type": "function"
    },
    {
      "inputs": [
        {
          "internalType": "address",
          "name": "newOwner",
          "type": "address"
        }
      ],
      "name": "transferOwnership",
      "outputs": [],
      "stateMutability": "nonpayable",
      "type": "function"
    },
    {
      "inputs": [],
      "name": "withdraw",
      "outputs": [],
      "stateMutability": "payable",
      "type": "function"
    }
  ],
  "bytecode": "0x6080604052662386f26fc10000600d556000600e553480156200002157600080fd5b5060405162002c4038038062002c40833981016040819052620000449162000282565b8451859085906200005d90600090602085019062000125565b5080516200007390600190602084019062000125565b505050620000906200008a620000cf60201b60201c565b620000d3565b600c80546001600160a01b0319166001600160a01b0383161790558251620000c090600f90602086019062000125565b5050600d555062000394915050565b3390565b600a80546001600160a01b038381166001600160a01b0319831681179093556040519116919082907f8be0079c531659141344cd1fd0a4f28419497f9722a3daafe3b4186f6b6457e090600090a35050565b828054620001339062000341565b90600052602060002090601f016020900481019282620001575760008555620001a2565b82601f106200017257805160ff1916838001178555620001a2565b82800160010185558215620001a2579182015b82811115620001a257825182559160200191906001019062000185565b50620001b0929150620001b4565b5090565b5b80821115620001b05760008155600101620001b5565b600082601f830112620001dd57600080fd5b81516001600160401b0380821115620001fa57620001fa6200037e565b604051601f8301601f19908116603f011681019082821181831017156200022557620002256200037e565b816040528381526020925086838588010111156200024257600080fd5b600091505b8382101562000266578582018301518183018401529082019062000247565b83821115620002785760008385830101525b9695505050505050565b600080600080600060a086880312156200029b57600080fd5b85516001600160401b0380821115620002b357600080fd5b620002c189838a01620001cb565b96506020880151915080821115620002d857600080fd5b620002e689838a01620001cb565b95506040880151915080821115620002fd57600080fd5b506200030c88828901620001cb565b60608801516080890151919550935090506001600160a01b03811681146200033357600080fd5b809150509295509295909350565b600181811c908216806200035657607f821691505b602082108114156200037857634e487b7160e01b600052602260045260246000fd5b50919050565b634e487b7160e01b600052604160045260246000fd5b61289c80620003a46000396000f3fe6080604052600436106101ee5760003560e01c806370a082311161010d578063b88d4fde116100a0578063e6539e471161006f578063e6539e471461054c578063e985e9c51461056c578063ebc9bd3b146105b5578063f2fde38b146105ca578063f97d31d9146105ea57600080fd5b8063b88d4fde146104e1578063c87b56dd14610501578063d547cfb714610521578063dac6db1c1461053657600080fd5b80638da5cb5b116100dc5780638da5cb5b1461046e57806395d89b411461048c57806398ca7795146104a1578063a22cb465146104c157600080fd5b806370a08231146103e5578063715018a6146104055780637cc1f8671461041a5780638462151c1461044157600080fd5b80632f745c591161018557806342842e0e1161015457806342842e0e146103655780634f6ccce71461038557806355f804b3146103a55780636352211e146103c557600080fd5b80632f745c591461031257806332cb6b0c1461033257806334eafb11146103485780633ccfd60b1461035d57600080fd5b806309d42b30116101c157806309d42b30146102a457806318160ddd146102c85780632083ad82146102dd57806323b872dd146102f257600080fd5b806301ffc9a7146101f357806306fdde0314610228578063081812fc1461024a578063095ea7b314610282575b600080fd5b3480156101ff57600080fd5b5061021361020e36600461231e565b61060a565b60405190151581526020015b60405180910390f35b34801561023457600080fd5b5061023d61061b565b60405161021f919061251c565b34801561025657600080fd5b5061026a6102653660046123a1565b6106ad565b6040516001600160a01b03909116815260200161021f565b34801561028e57600080fd5b506102a261029d3660046122d7565b610747565b005b3480156102b057600080fd5b506102ba6101f481565b60405190815260200161021f565b3480156102d457600080fd5b506008546102ba565b3480156102e957600080fd5b50600d546102ba565b3480156102fe57600080fd5b506102a261030d3660046121e8565b61085d565b34801561031e57600080fd5b506102ba61032d3660046122d7565b61088e565b34801561033e57600080fd5b506102ba61138881565b34801561035457600080fd5b506102ba610924565b6102a2610934565b34801561037157600080fd5b506102a26103803660046121e8565b610a73565b34801561039157600080fd5b506102ba6103a03660046123a1565b610a8e565b3480156103b157600080fd5b506102a26103c0366004612358565b610b21565b3480156103d157600080fd5b5061026a6103e03660046123a1565b610c3b565b3480156103f157600080fd5b506102ba610400366004612193565b610cb2565b34801561041157600080fd5b506102a2610d39565b34801561042657600080fd5b5061042f610d6f565b60405161021f96959493929190612475565b34801561044d57600080fd5b5061046161045c366004612193565b610dab565b60405161021f91906124d8565b34801561047a57600080fd5b50600a546001600160a01b031661026a565b34801561049857600080fd5b5061023d610e4d565b3480156104ad57600080fd5b506102a26104bc3660046123a1565b610e5c565b3480156104cd57600080fd5b506102a26104dc3660046122a0565b610eea565b3480156104ed57600080fd5b506102a26104fc366004612224565b610ef9565b34801561050d57600080fd5b5061023d61051c3660046123a1565b610f31565b34801561052d57600080fd5b5061023d61100c565b34801561054257600080fd5b506102ba600d5481565b34801561055857600080fd5b506102a26105673660046123ba565b61109a565b34801561057857600080fd5b506102136105873660046121b5565b6001600160a01b03918216600090815260056020908152604080832093909416825291909152205460ff1690565b3480156105c157600080fd5b50600e546102ba565b3480156105d657600080fd5b506102a26105e5366004612193565b6111fb565b3480156105f657600080fd5b506102a26106053660046123a1565b611296565b6000610615826114b1565b92915050565b60606000805461062a9061276a565b80601f01602080910402602001604051908101604052809291908181526020018280546106569061276a565b80156106a35780601f10610678576101008083540402835291602001916106a3565b820191906000526020600020905b81548152906001019060200180831161068657829003601f168201915b5050505050905090565b6000818152600260205260408120546001600160a01b031661072b5760405162461bcd60e51b815260206004820152602c60248201527f4552433732313a20617070726f76656420717565727920666f72206e6f6e657860448201526b34b9ba32b73a103a37b5b2b760a11b60648201526084015b60405180910390fd5b506000908152600460205260409020546001600160a01b031690565b600061075282610c3b565b9050806001600160a01b0316836001600160a01b031614156107c05760405162461bcd60e51b815260206004820152602160248201527f4552433732313a20617070726f76616c20746f2063757272656e74206f776e656044820152603960f91b6064820152608401610722565b336001600160a01b03821614806107dc57506107dc8133610587565b61084e5760405162461bcd60e51b815260206004820152603860248201527f4552433732313a20617070726f76652063616c6c6572206973206e6f74206f7760448201527f6e6572206e6f7220617070726f76656420666f7220616c6c00000000000000006064820152608401610722565b61085883836114d6565b505050565b6108673382611544565b6108835760405162461bcd60e51b8152600401610722906126aa565b61085883838361163b565b600061089983610cb2565b82106108fb5760405162461bcd60e51b815260206004820152602b60248201527f455243373231456e756d657261626c653a206f776e657220696e646578206f7560448201526a74206f6620626f756e647360a81b6064820152608401610722565b506001600160a01b03919091166000908152600660209081526040808320938352929052205490565b600061092f600b5490565b905090565b600a546001600160a01b0316331461095e5760405162461bcd60e51b815260040161072290612675565b47806109ac5760405162461bcd60e51b815260206004820152601960248201527f4e6f206574686572206c65667420746f207769746864726177000000000000006044820152606401610722565b604051600090339083908381818185875af1925050503d80600081146109ee576040519150601f19603f3d011682016040523d82523d6000602084013e6109f3565b606091505b5050905080610a365760405162461bcd60e51b815260206004820152600f60248201526e151c985b9cd9995c8819985a5b1959608a1b6044820152606401610722565b604080518381523360208201527f97ff324fe72ffb332ee8f1291e8e978f529b444da86afa9a1cc08f53f710fa4a91015b60405180910390a15050565b61085883838360405180602001604052806000815250610ef9565b6000610a9960085490565b8210610afc5760405162461bcd60e51b815260206004820152602c60248201527f455243373231456e756d657261626c653a20676c6f62616c20696e646578206f60448201526b7574206f6620626f756e647360a01b6064820152608401610722565b60088281548110610b0f57610b0f612816565b90600052602060002001549050919050565b600c546001600160a01b031663c395fcb3336040516001600160e01b031960e084901b1681526001600160a01b03909116600482015260240160206040518083038186803b158015610b7257600080fd5b505afa158015610b86573d6000803e3d6000fd5b505050506040513d601f19601f82011682018060405250810190610baa9190612301565b610bec5760405162461bcd60e51b81526020600482015260136024820152724f6e6c792061646d696e20706f737369626c6560681b6044820152606401610722565b8051610bff90600f906020840190612068565b507f6741b2fc379fad678116fe3d4d4b9a1a184ab53ba36b86ad0fa66340b1ab41ad600f604051610c30919061257b565b60405180910390a150565b6000818152600260205260408120546001600160a01b0316806106155760405162461bcd60e51b815260206004820152602960248201527f4552433732313a206f776e657220717565727920666f72206e6f6e657869737460448201526832b73a103a37b5b2b760b91b6064820152608401610722565b60006001600160a01b038216610d1d5760405162461bcd60e51b815260206004820152602a60248201527f4552433732313a2062616c616e636520717565727920666f7220746865207a65604482015269726f206164647265737360b01b6064820152608401610722565b506001600160a01b031660009081526003602052604090205490565b600a546001600160a01b03163314610d635760405162461bcd60e51b815260040161072290612675565b610d6d60006117e6565b565b6000606080600080606030610d8261061b565b610d8a610e4d565b600b54600d54610d98611838565b949b939a50919850965094509092509050565b60606000610db883610cb2565b905060008167ffffffffffffffff811115610dd557610dd561282c565b604051908082528060200260200182016040528015610dfe578160200160208202803683370190505b50905060005b82811015610e4557610e16858261088e565b828281518110610e2857610e28612816565b602090810291909101015280610e3d816127a5565b915050610e04565b509392505050565b60606001805461062a9061276a565b600e5415610eac5760405162461bcd60e51b815260206004820152601b60248201527f4e6f742061626c6520746f2073657420616674657220747261646500000000006044820152606401610722565b600d80549082905560408051828152602081018490527f0bfd84f586f186e4e2a0b575593a4b4b7735b4229f86de082fd9662d9324bb279101610a67565b610ef5338383611847565b5050565b610f033383611544565b610f1f5760405162461bcd60e51b8152600401610722906126aa565b610f2b84848484611916565b50505050565b6000818152600260205260409020546060906001600160a01b0316610fb05760405162461bcd60e51b815260206004820152602f60248201527f4552433732314d657461646174613a2055524920717565727920666f72206e6f60448201526e3732bc34b9ba32b73a103a37b5b2b760891b6064820152608401610722565b6000610fba611838565b805190915015610ff65780610fce84611949565b604051602001610fdf929190612409565b604051602081830303815290604052915050919050565b5050604080516020810190915260008152919050565b600f80546110199061276a565b80601f01602080910402602001604051908101604052809291908181526020018280546110459061276a565b80156110925780601f1061106757610100808354040283529160200191611092565b820191906000526020600020905b81548152906001019060200180831161107557829003601f168201915b505050505081565b600a546001600160a01b031633146110c45760405162461bcd60e51b815260040161072290612675565b60006110cf600b5490565b90508083600e546110e091906126fb565b11156111235760405162461bcd60e51b8152602060048201526012602482015271496e73756666696369656e74206974656d7360701b6044820152606401610722565b60005b838110156111745761114c611143600a546001600160a01b031690565b84600e54610a73565b600e805490600061115c836127a5565b9190505550808061116c906127a5565b915050611126565b506111ad60405180604001604052806016815260200175027232a1021b7b73a3930b1ba101d1036b4b73a32b2160551b81525084611a47565b600e54604080518581523360208201528082018490526060810192909252517f0713ae16a171f65c6877fd4bff12d9157605b607ef798a53c771cbadd0892ff49181900360800190a1505050565b600a546001600160a01b031633146112255760405162461bcd60e51b815260040161072290612675565b6001600160a01b03811661128a5760405162461bcd60e51b815260206004820152602660248201527f4f776e61626c653a206e6577206f776e657220697320746865207a65726f206160448201526564647265737360d01b6064820152608401610722565b611293816117e6565b50565b600a546001600160a01b031633146112c05760405162461bcd60e51b815260040161072290612675565b6112f76040518060400160405280600f81526020016e4372656174696e67204e465420627960881b8152506112f23390565b611a8c565b6000611302600b5490565b905061138861131183836126fb565b11156113525760405162461bcd60e51b815260206004820152601060248201526f4e6f7420656e6f75676820737061636560801b6044820152606401610722565b61138960405180604001604052806015815260200174021b932b0ba34b7339027232a1031b7bab73a101d1605d1b81525083611a47565b60008211801561139b57506101f48211155b6113d75760405162461bcd60e51b815260206004820152600d60248201526c10dbdd5b9d081a5b9d985b1a59609a1b6044820152606401610722565b600b541561141c5760405162461bcd60e51b8152602060048201526012602482015271105919081a5cc81b9bdd08185b1b1bddd95960721b6044820152606401610722565b60005b828110156114415761142f611ad1565b80611439816127a5565b91505061141f565b506114816040518060400160405280601781526020017f4e465420436f6e7472616374203a20637265617465642000000000000000000081525083611a47565b6040518281527fdb6b58dc67f2abe3f234d78a4504456862f5403a87f22cd3b7945005b71edac390602001610a67565b60006001600160e01b0319821663780e9d6360e01b1480610615575061061582611b07565b600081815260046020526040902080546001600160a01b0319166001600160a01b038416908117909155819061150b82610c3b565b6001600160a01b03167f8c5be1e5ebec7d5bd14f71427d1e84f3dd0314c0f7b2291e5b200ac8c7c3b92560405160405180910390a45050565b6000818152600260205260408120546001600160a01b03166115bd5760405162461bcd60e51b815260206004820152602c60248201527f4552433732313a206f70657261746f7220717565727920666f72206e6f6e657860448201526b34b9ba32b73a103a37b5b2b760a11b6064820152608401610722565b60006115c883610c3b565b9050806001600160a01b0316846001600160a01b031614806116035750836001600160a01b03166115f8846106ad565b6001600160a01b0316145b8061163357506001600160a01b0380821660009081526005602090815260408083209388168352929052205460ff165b949350505050565b826001600160a01b031661164e82610c3b565b6001600160a01b0316146116b65760405162461bcd60e51b815260206004820152602960248201527f4552433732313a207472616e73666572206f6620746f6b656e2074686174206960448201526839903737ba1037bbb760b91b6064820152608401610722565b6001600160a01b0382166117185760405162461bcd60e51b8152602060048201526024808201527f4552433732313a207472616e7366657220746f20746865207a65726f206164646044820152637265737360e01b6064820152608401610722565b611723838383611b57565b61172e6000826114d6565b6001600160a01b0383166000908152600360205260408120805460019290611757908490612727565b90915550506001600160a01b03821660009081526003602052604081208054600192906117859084906126fb565b909155505060008181526002602052604080822080546001600160a01b0319166001600160a01b0386811691821790925591518493918716917fddf252ad1be2c89b69c2b068fc378daa952ba7f163c4a11628f55a4df523b3ef91a4505050565b600a80546001600160a01b038381166001600160a01b0319831681179093556040519116919082907f8be0079c531659141344cd1fd0a4f28419497f9722a3daafe3b4186f6b6457e090600090a35050565b6060600f805461062a9061276a565b816001600160a01b0316836001600160a01b031614156118a95760405162461bcd60e51b815260206004820152601960248201527f4552433732313a20617070726f766520746f2063616c6c6572000000000000006044820152606401610722565b6001600160a01b03838116600081815260056020908152604080832094871680845294825291829020805460ff191686151590811790915591519182527f17307eab39ab6107e8899845ad3d59bd9653f200f220920489ca2b5937696c31910160405180910390a3505050565b61192184848461163b565b61192d84848484611c0f565b610f2b5760405162461bcd60e51b815260040161072290612623565b60608161196d5750506040805180820190915260018152600360fc1b602082015290565b8160005b81156119975780611981816127a5565b91506119909050600a83612713565b9150611971565b60008167ffffffffffffffff8111156119b2576119b261282c565b6040519080825280601f01601f1916602001820160405280156119dc576020820181803683370190505b5090505b8415611633576119f1600183612727565b91506119fe600a866127c0565b611a099060306126fb565b60f81b818381518110611a1e57611a1e612816565b60200101906001600160f81b031916908160001a905350611a40600a86612713565b94506119e0565b610ef58282604051602401611a5d929190612559565b60408051601f198184030181529190526020810180516001600160e01b03166309710a9d60e41b179052611d1c565b610ef58282604051602401611aa292919061252f565b60408051601f198184030181529190526020810180516001600160e01b031663319af33360e01b179052611d1c565b6000611adc600b5490565b9050611af9611af3600a546001600160a01b031690565b82611d3d565b611293600b80546001019055565b60006001600160e01b031982166380ac58cd60e01b1480611b3857506001600160e01b03198216635b5e139f60e01b145b8061061557506301ffc9a760e01b6001600160e01b0319831614610615565b6001600160a01b038316611bb257611bad81600880546000838152600960205260408120829055600182018355919091527ff3f7a9fe364faab93b216da50a3214154f22a0a2b415b23a84c8169e8b636ee30155565b611bd5565b816001600160a01b0316836001600160a01b031614611bd557611bd58382611d57565b6001600160a01b038216611bec5761085881611df4565b826001600160a01b0316826001600160a01b031614610858576108588282611ea3565b60006001600160a01b0384163b15611d1157604051630a85bd0160e11b81526001600160a01b0385169063150b7a0290611c53903390899088908890600401612438565b602060405180830381600087803b158015611c6d57600080fd5b505af1925050508015611c9d575060408051601f3d908101601f19168201909252611c9a9181019061233b565b60015b611cf7573d808015611ccb576040519150601f19603f3d011682016040523d82523d6000602084013e611cd0565b606091505b508051611cef5760405162461bcd60e51b815260040161072290612623565b805181602001fd5b6001600160e01b031916630a85bd0160e11b149050611633565b506001949350505050565b80516a636f6e736f6c652e6c6f67602083016000808483855afa5050505050565b610ef5828260405180602001604052806000815250611ee7565b60006001611d6484610cb2565b611d6e9190612727565b600083815260076020526040902054909150808214611dc1576001600160a01b03841660009081526006602090815260408083208584528252808320548484528184208190558352600790915290208190555b5060009182526007602090815260408084208490556001600160a01b039094168352600681528383209183525290812055565b600854600090611e0690600190612727565b60008381526009602052604081205460088054939450909284908110611e2e57611e2e612816565b906000526020600020015490508060088381548110611e4f57611e4f612816565b6000918252602080832090910192909255828152600990915260408082208490558582528120556008805480611e8757611e87612800565b6001900381819060005260206000200160009055905550505050565b6000611eae83610cb2565b6001600160a01b039093166000908152600660209081526040808320868452825280832085905593825260079052919091209190915550565b611ef18383611f1a565b611efe6000848484611c0f565b6108585760405162461bcd60e51b815260040161072290612623565b6001600160a01b038216611f705760405162461bcd60e51b815260206004820181905260248201527f4552433732313a206d696e7420746f20746865207a65726f20616464726573736044820152606401610722565b6000818152600260205260409020546001600160a01b031615611fd55760405162461bcd60e51b815260206004820152601c60248201527f4552433732313a20746f6b656e20616c7265616479206d696e746564000000006044820152606401610722565b611fe160008383611b57565b6001600160a01b038216600090815260036020526040812080546001929061200a9084906126fb565b909155505060008181526002602052604080822080546001600160a01b0319166001600160a01b03861690811790915590518392907fddf252ad1be2c89b69c2b068fc378daa952ba7f163c4a11628f55a4df523b3ef908290a45050565b8280546120749061276a565b90600052602060002090601f01602090048101928261209657600085556120dc565b82601f106120af57805160ff19168380011785556120dc565b828001600101855582156120dc579182015b828111156120dc5782518255916020019190600101906120c1565b506120e89291506120ec565b5090565b5b808211156120e857600081556001016120ed565b600067ffffffffffffffff8084111561211c5761211c61282c565b604051601f8501601f19908116603f011681019082821181831017156121445761214461282c565b8160405280935085815286868601111561215d57600080fd5b858560208301376000602087830101525050509392505050565b80356001600160a01b038116811461218e57600080fd5b919050565b6000602082840312156121a557600080fd5b6121ae82612177565b9392505050565b600080604083850312156121c857600080fd5b6121d183612177565b91506121df60208401612177565b90509250929050565b6000806000606084860312156121fd57600080fd5b61220684612177565b925061221460208501612177565b9150604084013590509250925092565b6000806000806080858703121561223a57600080fd5b61224385612177565b935061225160208601612177565b925060408501359150606085013567ffffffffffffffff81111561227457600080fd5b8501601f8101871361228557600080fd5b61229487823560208401612101565b91505092959194509250565b600080604083850312156122b357600080fd5b6122bc83612177565b915060208301356122cc81612842565b809150509250929050565b600080604083850312156122ea57600080fd5b6122f383612177565b946020939093013593505050565b60006020828403121561231357600080fd5b81516121ae81612842565b60006020828403121561233057600080fd5b81356121ae81612850565b60006020828403121561234d57600080fd5b81516121ae81612850565b60006020828403121561236a57600080fd5b813567ffffffffffffffff81111561238157600080fd5b8201601f8101841361239257600080fd5b61163384823560208401612101565b6000602082840312156123b357600080fd5b5035919050565b600080604083850312156123cd57600080fd5b823591506121df60208401612177565b600081518084526123f581602086016020860161273e565b601f01601f19169290920160200192915050565b6000835161241b81846020880161273e565b83519083019061242f81836020880161273e565b01949350505050565b6001600160a01b038581168252841660208201526040810183905260806060820181905260009061246b908301846123dd565b9695505050505050565b6001600160a01b038716815260c060208201819052600090612499908301886123dd565b82810360408401526124ab81886123dd565b905085606084015284608084015282810360a08401526124cb81856123dd565b9998505050505050505050565b6020808252825182820181905260009190848201906040850190845b81811015612510578351835292840192918401916001016124f4565b50909695505050505050565b6020815260006121ae60208301846123dd565b60408152600061254260408301856123dd565b905060018060a01b03831660208301529392505050565b60408152600061256c60408301856123dd565b90508260208301529392505050565b600060208083526000845481600182811c91508083168061259d57607f831692505b8583108114156125bb57634e487b7160e01b85526022600452602485fd5b8786018381526020018180156125d857600181146125e957612614565b60ff19861682528782019650612614565b60008b81526020902060005b8681101561260e578154848201529085019089016125f5565b83019750505b50949998505050505050505050565b60208082526032908201527f4552433732313a207472616e7366657220746f206e6f6e20455243373231526560408201527131b2b4bb32b91034b6b83632b6b2b73a32b960711b606082015260800190565b6020808252818101527f4f776e61626c653a2063616c6c6572206973206e6f7420746865206f776e6572604082015260600190565b60208082526031908201527f4552433732313a207472616e736665722063616c6c6572206973206e6f74206f6040820152701ddb995c881b9bdc88185c1c1c9bdd9959607a1b606082015260800190565b6000821982111561270e5761270e6127d4565b500190565b600082612722576127226127ea565b500490565b600082821015612739576127396127d4565b500390565b60005b83811015612759578181015183820152602001612741565b83811115610f2b5750506000910152565b600181811c9082168061277e57607f821691505b6020821081141561279f57634e487b7160e01b600052602260045260246000fd5b50919050565b60006000198214156127b9576127b96127d4565b5060010190565b6000826127cf576127cf6127ea565b500690565b634e487b7160e01b600052601160045260246000fd5b634e487b7160e01b600052601260045260246000fd5b634e487b7160e01b600052603160045260246000fd5b634e487b7160e01b600052603260045260246000fd5b634e487b7160e01b600052604160045260246000fd5b801515811461129357600080fd5b6001600160e01b03198116811461129357600080fdfea2646970667358221220ec90fb11c627c870dd334b58a3cd1bddceb7e892b801e0e49e7dcf4bfbab857964736f6c63430008070033",
  "linkReferences": {},
  "deployedLinkReferences": {}
}